{"contracts/FortuneReactiveHandler.sol":{"FortuneReactiveHandler":{"abi":[{"inputs":[{"internalType":"address","name":"_fortuneContract","type":"address"}],"stateMutability":"nonpayable","type":"constructor"},{"inputs":[],"name":"OnlyReactivityPrecompile","type":"error"},{"anonymous":false,"inputs":[{"indexed":true,"internalType":"address","name":"wallet","type":"address"},{"indexed":false,"internalType":"uint256","name":"tokenId","type":"uint256"},{"indexed":false,"internalType":"string","name":"rarity","type":"string"},{"indexed":false,"internalType":"uint256","name":"timestamp","type":"uint256"}],"name":"FortuneReaction","type":"event"},{"anonymous":false,"inputs":[{"indexed":false,"internalType":"uint256","name":"reactionCount","type":"uint256"},{"indexed":false,"internalType":"address","name":"latestWallet","type":"address"}],"name":"LiveFeedUpdate","type":"event"},{"inputs":[],"name":"fortuneContract","outputs":[{"internalType":"address","name":"","type":"address"}],"stateMutability":"view","type":"function"},{"inputs":[{"internalType":"address","name":"wallet","type":"address"}],"name":"getReactionStats","outputs":[{"internalType":"uint256","name":"","type":"uint256"},{"internalType":"uint256","name":"","type":"uint256"}],"stateMutability":"view","type":"function"},{"inputs":[{"internalType":"address","name":"emitter","type":"address"},{"internalType":"bytes32[]","name":"eventTopics","type":"bytes32[]"},{"internalType":"bytes","name":"data","type":"bytes"}],"name":"onEvent","outputs":[],"stateMutability":"nonpayable","type":"function"},{"inputs":[],"name":"reactionCount","outputs":[{"internalType":"uint256","name":"","type":"uint256"}],"stateMutability":"view","type":"function"},{"inputs":[{"internalType":"bytes4","name":"interfaceId","type":"bytes4"}],"name":"supportsInterface","outputs":[{"internalType":"bool","name":"","type":"bool"}],"stateMutability":"pure","type":"function"},{"inputs":[{"internalType":"address","name":"","type":"address"}],"name":"walletReactions","outputs":[{"internalType":"uint256","name":"","type":"uint256"}],"stateMutability":"view","type":"function"}],"evm":{"bytecode":{"linkReferences":{},"object":"608034606f57601f61056838819003918201601f19168301916001600160401b03831184841017607357808492602094604052833981010312606f57516001600160a01b03811690819003606f575f80546001600160a01b0319169190911790556040516104e090816100888239f35b5f80fd5b634e487b7160e01b5f52604160045260245ffdfe6080806040526004361015610012575f80fd5b5f3560e01c90816301ffc9a71461041b5750806353edf33d1461011c5780636f37b17f146100f557806370cb9963146100b7578063a27dfbde1461009a5763f1a0bbbf1461005e575f80fd5b34610096576020366003190112610096576001600160a01b0361007f61046e565b165f526002602052602060405f2054604051908152f35b5f80fd5b34610096575f366003190112610096576020600154604051908152f35b34610096576020366003190112610096576001600160a01b036100d861046e565b165f5260026020526040805f205460015482519182526020820152f35b34610096575f366003190112610096575f546040516001600160a01b039091168152602090f35b346100965760603660031901126100965761013561046e565b60243567ffffffffffffffff811161009657366023820112156100965780600401359067ffffffffffffffff821161009657602490369260051b010111610096576044359067ffffffffffffffff8211610096573660238301121561009657816004013567ffffffffffffffff8111610096578201602481019136831161009657610100330361040c575f546001600160a01b039081169116036103d05760a090839003126100965760448201356001600160a01b038116919082900361009657606483013567ffffffffffffffff81116100965783018160438201121561009657602481013567ffffffffffffffff81116103bc5761023e601f8201601f1916602001610484565b8181529260448383010111610096575f928160446020940184830137010152608482013560ff8116809103610096578061036e575061027d6040610484565b600681526521a7a6a6a7a760d11b6020820152905b6001546001810180911161035a57600155805f52600260205260405f209182546001810180911161035a577f68b1ee96a877c12679b5a6a14cf304c7c87012c5498fc7cc1ba07d8069a705cd94608084937fa7da9594ece7b520ffe750b91cfbe56a72a92ca655b1f6c5230fec10ce2fd1a29360409755602060a48851948593602482013585526060848601528051938491826060880152018686015e5f848401860152013588830152601f01601f19168101030190a26001549082519182526020820152a1005b634e487b7160e01b5f52601160045260245ffd5b6001036103965761037f6040610484565b60048152635241524560e01b602082015290610292565b6103a06040610484565b60098152684c4547454e4441525960b81b602082015290610292565b634e487b7160e01b5f52604160045260245ffd5b60405162461bcd60e51b81526020600482015260146024820152732ab730baba3437b934bd32b21032b6b4ba3a32b960611b6044820152606490fd5b63191fbb7560e01b5f5260045ffd5b34610096576020366003190112610096576004359063ffffffff60e01b8216809203610096576020916301ffc9a760e01b811490811561045d575b5015158152f35b6353edf33d60e01b14905083610456565b600435906001600160a01b038216820361009657565b6040519190601f01601f1916820167ffffffffffffffff8111838210176103bc5760405256fea26469706673582212207289ebca297124308a7de7f2883095ab4df37d1e49907d2244fce044446ca7bd64736f6c634300081e0033","opcodes":"PUSH1 0x80 CALLVALUE PUSH1 0x6F JUMPI PUSH1 0x1F PUSH2 0x568 CODESIZE DUP2 SWAP1 SUB SWAP2 DUP3 ADD PUSH1 0x1F NOT AND DUP4 ADD SWAP2 PUSH1 0x1 PUSH1 0x1 PUSH1 0x40 SHL SUB DUP4 GT DUP5 DUP5 LT OR PUSH1 0x73 JUMPI DUP1 DUP5 SWAP3 PUSH1 0x20 SWAP5 PUSH1 0x40 MSTORE DUP4 CODECOPY DUP2 ADD SUB SLT PUSH1 0x6F JUMPI MLOAD PUSH1 0x1 PUSH1 0x1 PUSH1 0xA0 SHL SUB DUP2 AND SWAP1 DUP2 SWAP1 SUB PUSH1 0x6F JUMPI PUSH0 DUP1 SLOAD PUSH1 0x1 PUSH1 0x1 PUSH1 0xA0 SHL SUB NOT AND SWAP2 SWAP1 SWAP2 OR SWAP1 SSTORE PUSH1 0x40 MLOAD PUSH2 0x4E0 SWAP1 DUP2 PUSH2 0x88 DUP3 CODECOPY RETURN JUMPDEST PUSH0 DUP1 REVERT JUMPDEST PUSH4 0x4E487B71 PUSH1 0xE0 SHL PUSH0 MSTORE PUSH1 0x41 PUSH1 0x4 MSTORE PUSH1 0x24 PUSH0 REVERT INVALID PUSH1 0x80 DUP1 PUSH1 0x40 MSTORE PUSH1 0x4 CALLDATASIZE LT ISZERO PUSH2 0x12 JUMPI PUSH0 DUP1 REVERT JUMPDEST PUSH0 CALLDATALOAD PUSH1 0xE0 SHR SWAP1 DUP2 PUSH4 0x1FFC9A7 EQ PUSH2 0x41B JUMPI POP DUP1 PUSH4 0x53EDF33D EQ PUSH2 0x11C JUMPI DUP1 PUSH4 0x6F37B17F EQ PUSH2 0xF5 JUMPI DUP1 PUSH4 0x70CB9963 EQ PUSH2 0xB7 JUMPI DUP1 PUSH4 0xA27DFBDE EQ PUSH2 0x9A JUMPI PUSH4 0xF1A0BBBF EQ PUSH2 0x5E JUMPI PUSH0 DUP1 REVERT JUMPDEST CALLVALUE PUSH2 0x96 JUMPI PUSH1 0x20 CALLDATASIZE PUSH1 0x3 NOT ADD SLT PUSH2 0x96 JUMPI PUSH1 0x1 PUSH1 0x1 PUSH1 0xA0 SHL SUB PUSH2 0x7F PUSH2 0x46E JUMP JUMPDEST AND PUSH0 MSTORE PUSH1 0x2 PUSH1 0x20 MSTORE PUSH1 0x20 PUSH1 0x40 PUSH0 KECCAK256 SLOAD PUSH1 0x40 MLOAD SWAP1 DUP2 MSTORE RETURN JUMPDEST PUSH0 DUP1 REVERT JUMPDEST CALLVALUE PUSH2 0x96 JUMPI PUSH0 CALLDATASIZE PUSH1 0x3 NOT ADD SLT PUSH2 0x96 JUMPI PUSH1 0x20 PUSH1 0x1 SLOAD PUSH1 0x40 MLOAD SWAP1 DUP2 MSTORE RETURN JUMPDEST CALLVALUE PUSH2 0x96 JUMPI PUSH1 0x20 CALLDATASIZE PUSH1 0x3 NOT ADD SLT PUSH2 0x96 JUMPI PUSH1 0x1 PUSH1 0x1 PUSH1 0xA0 SHL SUB PUSH2 0xD8 PUSH2 0x46E JUMP JUMPDEST AND PUSH0 MSTORE PUSH1 0x2 PUSH1 0x20 MSTORE PUSH1 0x40 DUP1 PUSH0 KECCAK256 SLOAD PUSH1 0x1 SLOAD DUP3 MLOAD SWAP2 DUP3 MSTORE PUSH1 0x20 DUP3 ADD MSTORE RETURN JUMPDEST CALLVALUE PUSH2 0x96 JUMPI PUSH0 CALLDATASIZE PUSH1 0x3 NOT ADD SLT PUSH2 0x96 JUMPI PUSH0 SLOAD PUSH1 0x40 MLOAD PUSH1 0x1 PUSH1 0x1 PUSH1 0xA0 SHL SUB SWAP1 SWAP2 AND DUP2 MSTORE PUSH1 0x20 SWAP1 RETURN JUMPDEST CALLVALUE PUSH2 0x96 JUMPI PUSH1 0x60 CALLDATASIZE PUSH1 0x3 NOT ADD SLT PUSH2 0x96 JUMPI PUSH2 0x135 PUSH2 0x46E JUMP JUMPDEST PUSH1 0x24 CALLDATALOAD PUSH8 0xFFFFFFFFFFFFFFFF DUP2 GT PUSH2 0x96 JUMPI CALLDATASIZE PUSH1 0x23 DUP3 ADD SLT ISZERO PUSH2 0x96 JUMPI DUP1 PUSH1 0x4 ADD CALLDATALOAD SWAP1 PUSH8 0xFFFFFFFFFFFFFFFF DUP3 GT PUSH2 0x96 JUMPI PUSH1 0x24 SWAP1 CALLDATASIZE SWAP3 PUSH1 0x5 SHL ADD ADD GT PUSH2 0x96 JUMPI PUSH1 0x44 CALLDATALOAD SWAP1 PUSH8 0xFFFFFFFFFFFFFFFF DUP3 GT PUSH2 0x96 JUMPI CALLDATASIZE PUSH1 0x23 DUP4 ADD SLT ISZERO PUSH2 0x96 JUMPI DUP2 PUSH1 0x4 ADD CALLDATALOAD PUSH8 0xFFFFFFFFFFFFFFFF DUP2 GT PUSH2 0x96 JUMPI DUP3 ADD PUSH1 0x24 DUP2 ADD SWAP2 CALLDATASIZE DUP4 GT PUSH2 0x96 JUMPI PUSH2 0x100 CALLER SUB PUSH2 0x40C JUMPI PUSH0 SLOAD PUSH1 0x1 PUSH1 0x1 PUSH1 0xA0 SHL SUB SWAP1 DUP2 AND SWAP2 AND SUB PUSH2 0x3D0 JUMPI PUSH1 0xA0 SWAP1 DUP4 SWAP1 SUB SLT PUSH2 0x96 JUMPI PUSH1 0x44 DUP3 ADD CALLDATALOAD PUSH1 0x1 PUSH1 0x1 PUSH1 0xA0 SHL SUB DUP2 AND SWAP2 SWAP1 DUP3 SWAP1 SUB PUSH2 0x96 JUMPI PUSH1 0x64 DUP4 ADD CALLDATALOAD PUSH8 0xFFFFFFFFFFFFFFFF DUP2 GT PUSH2 0x96 JUMPI DUP4 ADD DUP2 PUSH1 0x43 DUP3 ADD SLT ISZERO PUSH2 0x96 JUMPI PUSH1 0x24 DUP2 ADD CALLDATALOAD PUSH8 0xFFFFFFFFFFFFFFFF DUP2 GT PUSH2 0x3BC JUMPI PUSH2 0x23E PUSH1 0x1F DUP3 ADD PUSH1 0x1F NOT AND PUSH1 0x20 ADD PUSH2 0x484 JUMP JUMPDEST DUP2 DUP2 MSTORE SWAP3 PUSH1 0x44 DUP4 DUP4 ADD ADD GT PUSH2 0x96 JUMPI PUSH0 SWAP3 DUP2 PUSH1 0x44 PUSH1 0x20 SWAP5 ADD DUP5 DUP4 ADD CALLDATACOPY ADD ADD MSTORE PUSH1 0x84 DUP3 ADD CALLDATALOAD PUSH1 0xFF DUP2 AND DUP1 SWAP2 SUB PUSH2 0x96 JUMPI DUP1 PUSH2 0x36E JUMPI POP PUSH2 0x27D PUSH1 0x40 PUSH2 0x484 JUMP JUMPDEST PUSH1 0x6 DUP2 MSTORE PUSH6 0x21A7A6A6A7A7 PUSH1 0xD1 SHL PUSH1 0x20 DUP3 ADD MSTORE SWAP1 JUMPDEST PUSH1 0x1 SLOAD PUSH1 0x1 DUP2 ADD DUP1 SWAP2 GT PUSH2 0x35A JUMPI PUSH1 0x1 SSTORE DUP1 PUSH0 MSTORE PUSH1 0x2 PUSH1 0x20 MSTORE PUSH1 0x40 PUSH0 KECCAK256 SWAP2 DUP3 SLOAD PUSH1 0x1 DUP2 ADD DUP1 SWAP2 GT PUSH2 0x35A JUMPI PUSH32 0x68B1EE96A877C12679B5A6A14CF304C7C87012C5498FC7CC1BA07D8069A705CD SWAP5 PUSH1 0x80 DUP5 SWAP4 PUSH32 0xA7DA9594ECE7B520FFE750B91CFBE56A72A92CA655B1F6C5230FEC10CE2FD1A2 SWAP4 PUSH1 0x40 SWAP8 SSTORE PUSH1 0x20 PUSH1 0xA4 DUP9 MLOAD SWAP5 DUP6 SWAP4 PUSH1 0x24 DUP3 ADD CALLDATALOAD DUP6 MSTORE PUSH1 0x60 DUP5 DUP7 ADD MSTORE DUP1 MLOAD SWAP4 DUP5 SWAP2 DUP3 PUSH1 0x60 DUP9 ADD MSTORE ADD DUP7 DUP7 ADD MCOPY PUSH0 DUP5 DUP5 ADD DUP7 ADD MSTORE ADD CALLDATALOAD DUP9 DUP4 ADD MSTORE PUSH1 0x1F ADD PUSH1 0x1F NOT AND DUP2 ADD SUB ADD SWAP1 LOG2 PUSH1 0x1 SLOAD SWAP1 DUP3 MLOAD SWAP2 DUP3 MSTORE PUSH1 0x20 DUP3 ADD MSTORE LOG1 STOP JUMPDEST PUSH4 0x4E487B71 PUSH1 0xE0 SHL PUSH0 MSTORE PUSH1 0x11 PUSH1 0x4 MSTORE PUSH1 0x24 PUSH0 REVERT JUMPDEST PUSH1 0x1 SUB PUSH2 0x396 JUMPI PUSH2 0x37F PUSH1 0x40 PUSH2 0x484 JUMP JUMPDEST PUSH1 0x4 DUP2 MSTORE PUSH4 0x52415245 PUSH1 0xE0 SHL PUSH1 0x20 DUP3 ADD MSTORE SWAP1 PUSH2 0x292 JUMP JUMPDEST PUSH2 0x3A0 PUSH1 0x40 PUSH2 0x484 JUMP JUMPDEST PUSH1 0x9 DUP2 MSTORE PUSH9 0x4C4547454E44415259 PUSH1 0xB8 SHL PUSH1 0x20 DUP3 ADD MSTORE SWAP1 PUSH2 0x292 JUMP JUMPDEST PUSH4 0x4E487B71 PUSH1 0xE0 SHL PUSH0 MSTORE PUSH1 0x41 PUSH1 0x4 MSTORE PUSH1 0x24 PUSH0 REVERT JUMPDEST PUSH1 0x40 MLOAD PUSH3 0x461BCD PUSH1 0xE5 SHL DUP2 MSTORE PUSH1 0x20 PUSH1 0x4 DUP3 ADD MSTORE PUSH1 0x14 PUSH1 0x24 DUP3 ADD MSTORE PUSH20 0x2AB730BABA3437B934BD32B21032B6B4BA3A32B9 PUSH1 0x61 SHL PUSH1 0x44 DUP3 ADD MSTORE PUSH1 0x64 SWAP1 REVERT JUMPDEST PUSH4 0x191FBB75 PUSH1 0xE0 SHL PUSH0 MSTORE PUSH1 0x4 PUSH0 REVERT JUMPDEST CALLVALUE PUSH2 0x96 JUMPI PUSH1 0x20 CALLDATASIZE PUSH1 0x3 NOT ADD SLT PUSH2 0x96 JUMPI PUSH1 0x4 CALLDATALOAD SWAP1 PUSH4 0xFFFFFFFF PUSH1 0xE0 SHL DUP3 AND DUP1 SWAP3 SUB PUSH2 0x96 JUMPI PUSH1 0x20 SWAP2 PUSH4 0x1FFC9A7 PUSH1 0xE0 SHL DUP2 EQ SWAP1 DUP2 ISZERO PUSH2 0x45D JUMPI JUMPDEST POP ISZERO ISZERO DUP2 MSTORE RETURN JUMPDEST PUSH4 0x53EDF33D PUSH1 0xE0 SHL EQ SWAP1 POP DUP4 PUSH2 0x456 JUMP JUMPDEST PUSH1 0x4 CALLDATALOAD SWAP1 PUSH1 0x1 PUSH1 0x1 PUSH1 0xA0 SHL SUB DUP3 AND DUP3 SUB PUSH2 0x96 JUMPI JUMP JUMPDEST PUSH1 0x40 MLOAD SWAP2 SWAP1 PUSH1 0x1F ADD PUSH1 0x1F NOT AND DUP3 ADD PUSH8 0xFFFFFFFFFFFFFFFF DUP2 GT DUP4 DUP3 LT OR PUSH2 0x3BC JUMPI PUSH1 0x40 MSTORE JUMP INVALID LOG2 PUSH5 0x6970667358 0x22 SLT KECCAK256 PUSH19 0x89EBCA297124308A7DE7F2883095AB4DF37D1E BLOBHASH SWAP1 PUSH30 0x2244FCE044446CA7BD64736F6C634300081E003300000000000000000000 "},"methodIdentifiers":{"fortuneContract()":"6f37b17f","getReactionStats(address)":"70cb9963","onEvent(address,bytes32[],bytes)":"53edf33d","reactionCount()":"a27dfbde","supportsInterface(bytes4)":"01ffc9a7","walletReactions(address)":"f1a0bbbf"}}}}}