{"contracts/SomniaWhisperFortune.sol":{"SomniaWhisperFortune":{"abi":[{"inputs":[],"stateMutability":"nonpayable","type":"constructor"},{"inputs":[],"name":"ERC721EnumerableForbiddenBatchMint","type":"error"},{"inputs":[{"internalType":"address","name":"sender","type":"address"},{"internalType":"uint256","name":"tokenId","type":"uint256"},{"internalType":"address","name":"owner","type":"address"}],"name":"ERC721IncorrectOwner","type":"error"},{"inputs":[{"internalType":"address","name":"operator","type":"address"},{"internalType":"uint256","name":"tokenId","type":"uint256"}],"name":"ERC721InsufficientApproval","type":"error"},{"inputs":[{"internalType":"address","name":"approver","type":"address"}],"name":"ERC721InvalidApprover","type":"error"},{"inputs":[{"internalType":"address","name":"operator","type":"address"}],"name":"ERC721InvalidOperator","type":"error"},{"inputs":[{"internalType":"address","name":"owner","type":"address"}],"name":"ERC721InvalidOwner","type":"error"},{"inputs":[{"internalType":"address","name":"receiver","type":"address"}],"name":"ERC721InvalidReceiver","type":"error"},{"inputs":[{"internalType":"address","name":"sender","type":"address"}],"name":"ERC721InvalidSender","type":"error"},{"inputs":[{"internalType":"uint256","name":"tokenId","type":"uint256"}],"name":"ERC721NonexistentToken","type":"error"},{"inputs":[{"internalType":"address","name":"owner","type":"address"},{"internalType":"uint256","name":"index","type":"uint256"}],"name":"ERC721OutOfBoundsIndex","type":"error"},{"inputs":[{"internalType":"address","name":"owner","type":"address"}],"name":"OwnableInvalidOwner","type":"error"},{"inputs":[{"internalType":"address","name":"account","type":"address"}],"name":"OwnableUnauthorizedAccount","type":"error"},{"inputs":[{"internalType":"uint256","name":"value","type":"uint256"},{"internalType":"uint256","name":"length","type":"uint256"}],"name":"StringsInsufficientHexLength","type":"error"},{"anonymous":false,"inputs":[{"indexed":true,"internalType":"address","name":"owner","type":"address"},{"indexed":true,"internalType":"address","name":"approved","type":"address"},{"indexed":true,"internalType":"uint256","name":"tokenId","type":"uint256"}],"name":"Approval","type":"event"},{"anonymous":false,"inputs":[{"indexed":true,"internalType":"address","name":"owner","type":"address"},{"indexed":true,"internalType":"address","name":"operator","type":"address"},{"indexed":false,"internalType":"bool","name":"approved","type":"bool"}],"name":"ApprovalForAll","type":"event"},{"anonymous":false,"inputs":[{"indexed":true,"internalType":"uint256","name":"tokenId","type":"uint256"},{"indexed":true,"internalType":"address","name":"owner","type":"address"},{"indexed":false,"internalType":"string","name":"fortuneText","type":"string"},{"indexed":false,"internalType":"enum SomniaWhisperFortune.Rarity","name":"rarity","type":"uint8"},{"indexed":false,"internalType":"uint256","name":"timestamp","type":"uint256"}],"name":"FortuneMinted","type":"event"},{"anonymous":false,"inputs":[{"indexed":true,"internalType":"address","name":"previousOwner","type":"address"},{"indexed":true,"internalType":"address","name":"newOwner","type":"address"}],"name":"OwnershipTransferred","type":"event"},{"anonymous":false,"inputs":[{"indexed":true,"internalType":"address","name":"from","type":"address"},{"indexed":true,"internalType":"address","name":"to","type":"address"},{"indexed":true,"internalType":"uint256","name":"tokenId","type":"uint256"}],"name":"Transfer","type":"event"},{"inputs":[{"internalType":"address","name":"to","type":"address"},{"internalType":"uint256","name":"tokenId","type":"uint256"}],"name":"approve","outputs":[],"stateMutability":"nonpayable","type":"function"},{"inputs":[{"internalType":"address","name":"owner","type":"address"}],"name":"balanceOf","outputs":[{"internalType":"uint256","name":"","type":"uint256"}],"stateMutability":"view","type":"function"},{"inputs":[{"internalType":"uint256","name":"","type":"uint256"}],"name":"fortunes","outputs":[{"internalType":"address","name":"walletAddress","type":"address"},{"internalType":"string","name":"fortuneText","type":"string"},{"internalType":"uint256","name":"txCount","type":"uint256"},{"internalType":"uint256","name":"totalValue","type":"uint256"},{"internalType":"uint256","name":"timestamp","type":"uint256"},{"internalType":"enum SomniaWhisperFortune.Rarity","name":"rarity","type":"uint8"}],"stateMutability":"view","type":"function"},{"inputs":[{"internalType":"uint256","name":"tokenId","type":"uint256"}],"name":"getApproved","outputs":[{"internalType":"address","name":"","type":"address"}],"stateMutability":"view","type":"function"},{"inputs":[{"internalType":"address","name":"owner","type":"address"},{"internalType":"address","name":"operator","type":"address"}],"name":"isApprovedForAll","outputs":[{"internalType":"bool","name":"","type":"bool"}],"stateMutability":"view","type":"function"},{"inputs":[{"internalType":"string","name":"fortuneText","type":"string"},{"internalType":"uint256","name":"txCount","type":"uint256"},{"internalType":"uint256","name":"totalValue","type":"uint256"}],"name":"mintFortune","outputs":[],"stateMutability":"payable","type":"function"},{"inputs":[],"name":"mintPrice","outputs":[{"internalType":"uint256","name":"","type":"uint256"}],"stateMutability":"view","type":"function"},{"inputs":[],"name":"name","outputs":[{"internalType":"string","name":"","type":"string"}],"stateMutability":"view","type":"function"},{"inputs":[],"name":"owner","outputs":[{"internalType":"address","name":"","type":"address"}],"stateMutability":"view","type":"function"},{"inputs":[{"internalType":"uint256","name":"tokenId","type":"uint256"}],"name":"ownerOf","outputs":[{"internalType":"address","name":"","type":"address"}],"stateMutability":"view","type":"function"},{"inputs":[],"name":"renounceOwnership","outputs":[],"stateMutability":"nonpayable","type":"function"},{"inputs":[{"internalType":"address","name":"from","type":"address"},{"internalType":"address","name":"to","type":"address"},{"internalType":"uint256","name":"tokenId","type":"uint256"}],"name":"safeTransferFrom","outputs":[],"stateMutability":"nonpayable","type":"function"},{"inputs":[{"internalType":"address","name":"from","type":"address"},{"internalType":"address","name":"to","type":"address"},{"internalType":"uint256","name":"tokenId","type":"uint256"},{"internalType":"bytes","name":"data","type":"bytes"}],"name":"safeTransferFrom","outputs":[],"stateMutability":"nonpayable","type":"function"},{"inputs":[{"internalType":"address","name":"operator","type":"address"},{"internalType":"bool","name":"approved","type":"bool"}],"name":"setApprovalForAll","outputs":[],"stateMutability":"nonpayable","type":"function"},{"inputs":[{"internalType":"uint256","name":"_newPrice","type":"uint256"}],"name":"setMintPrice","outputs":[],"stateMutability":"nonpayable","type":"function"},{"inputs":[{"internalType":"bytes4","name":"interfaceId","type":"bytes4"}],"name":"supportsInterface","outputs":[{"internalType":"bool","name":"","type":"bool"}],"stateMutability":"view","type":"function"},{"inputs":[],"name":"symbol","outputs":[{"internalType":"string","name":"","type":"string"}],"stateMutability":"view","type":"function"},{"inputs":[{"internalType":"uint256","name":"index","type":"uint256"}],"name":"tokenByIndex","outputs":[{"internalType":"uint256","name":"","type":"uint256"}],"stateMutability":"view","type":"function"},{"inputs":[{"internalType":"address","name":"owner","type":"address"},{"internalType":"uint256","name":"index","type":"uint256"}],"name":"tokenOfOwnerByIndex","outputs":[{"internalType":"uint256","name":"","type":"uint256"}],"stateMutability":"view","type":"function"},{"inputs":[{"internalType":"uint256","name":"tokenId","type":"uint256"}],"name":"tokenURI","outputs":[{"internalType":"string","name":"","type":"string"}],"stateMutability":"view","type":"function"},{"inputs":[],"name":"totalSupply","outputs":[{"internalType":"uint256","name":"","type":"uint256"}],"stateMutability":"view","type":"function"},{"inputs":[{"internalType":"address","name":"from","type":"address"},{"internalType":"address","name":"to","type":"address"},{"internalType":"uint256","name":"tokenId","type":"uint256"}],"name":"transferFrom","outputs":[],"stateMutability":"nonpayable","type":"function"},{"inputs":[{"internalType":"address","name":"newOwner","type":"address"}],"name":"transferOwnership","outputs":[],"stateMutability":"nonpayable","type":"function"},{"inputs":[],"name":"withdraw","outputs":[],"stateMutability":"nonpayable","type":"function"}],"evm":{"bytecode":{"linkReferences":{},"object":"60806040523461038957604080519081016001600160401b0381118282101761029f576040908152601482527f536f6d6e696157686973706572466f7274756e65000000000000000000000000602083015280519081016001600160401b0381118282101761029f57604052600381526229aba360e91b602082015281516001600160401b03811161029f575f54600181811c9116801561037f575b602082101461028157601f811161031d575b50602092601f82116001146102be57928192935f926102b3575b50508160011b915f199060031b1c1916175f555b80516001600160401b03811161029f57600154600181811c91168015610295575b602082101461028157601f811161021e575b50602091601f82116001146101be579181925f926101b3575b50508160011b915f199060031b1c1916176001555b33156101a057600a8054336001600160a01b03198216811790925560405191906001600160a01b03167f8be0079c531659141344cd1fd0a4f28419497f9722a3daafe3b4186f6b6457e05f80a366038d7ea4c68000600c55612a18908161038e8239f35b631e4fbdf760e01b5f525f60045260245ffd5b015190505f80610127565b601f1982169260015f52805f20915f5b858110610206575083600195106101ee575b505050811b0160015561013c565b01515f1960f88460031b161c191690555f80806101e0565b919260206001819286850151815501940192016101ce565b60015f527fb10e2d527612073b26eecdfd717e6a320cf44b4afac2b0732d9fcbe2b7fa0cf6601f830160051c81019160208410610277575b601f0160051c01905b81811061026c575061010e565b5f815560010161025f565b9091508190610256565b634e487b7160e01b5f52602260045260245ffd5b90607f16906100fc565b634e487b7160e01b5f52604160045260245ffd5b015190505f806100c7565b601f198216935f8052805f20915f5b86811061030557508360019596106102ed575b505050811b015f556100db565b01515f1960f88460031b161c191690555f80806102e0565b919260206001819286850151815501940192016102cd565b5f80527f290decd9548b62a8d60345a988386fc84ba6bc95484008f6362f93160ef3e563601f830160051c81019160208410610375575b601f0160051c01905b81811061036a57506100ad565b5f815560010161035d565b9091508190610354565b90607f169061009b565b5f80fdfe6080806040526004361015610012575f80fd5b5f3560e01c90816301ffc9a714611eb15750806306fdde0314611e0f578063081812fc14611dd3578063095ea7b314611ce95780630a1d0095146116d157806318160ddd146116b457806323b872dd1461169d5780632f745c591461162b5780633ccfd60b146115df57806342842e0e146115b05780634f6ccce7146115625780636352211e146115325780636817c76c1461151557806370a08231146114ea578063715018a61461148f5780638c8005a3146114035780638da5cb5b146113db57806395d89b41146112fd578063a22cb46514611249578063b88d4fde146111db578063c87b56dd14610226578063e985e9c5146101cf578063f2fde38b146101495763f4a0a52814610124575f80fd5b346101455760203660031901126101455761013d612446565b600435600c55005b5f80fd5b3461014557602036600319011261014557610162611f5a565b61016a612446565b6001600160a01b031680156101bc57600a80546001600160a01b0319811683179091556001600160a01b03167f8be0079c531659141344cd1fd0a4f28419497f9722a3daafe3b4186f6b6457e05f80a3005b631e4fbdf760e01b5f525f60045260245ffd5b34610145576040366003190112610145576101e8611f5a565b6101f0611f70565b9060018060a01b03165f52600560205260405f209060018060a01b03165f52602052602060ff60405f2054166040519015158152f35b3461014557602036600319011261014557600435805f52600d602052600460405f2001541561119657805f52600d60205260405f20906040519061026982611f86565b82546001600160a01b0316825261028260018401612088565b9160208101928352600284015460408201526003840154606082015260ff6005600486015495608084019687520154166102c060a083019182612135565b80516003811015611182576002036110e25750604080516102e18282611fa2565b6009815268e29885e29885e2988560b81b6020820152815190916103059082611fa2565b601381527275726c28236c6567656e64617279477261642960681b6020820152935b61033b6103348251612753565b915161281c565b610344856125a3565b93516001600160a01b03169182919061035d602a611fc4565b9861036b6040519a8b611fa2565b602a8a52610379602a611fc4565b60208b019590601f19013687378a511561106257603086538a51600110156110625760218b01946078865360295b6001811161108d575061107657506040998a51946103c58c87611fa2565b600c86526020860196601f198d013689378251156110625760ff60f81b9051165f1a8651156110625787538151600110156110625760ff60f81b9051165f1a8551600110156110625760218601538051600210156110625760ff60f81b6022820151165f1a8551600210156110625760228601538051600310156110625760ff60f81b6023820151165f1a8551600310156110625760238601538051600410156110625760ff60f81b6024820151165f1a8551600410156110625760248601538051600510156110625760ff60f81b6025820151165f1a85516005101561106257602586015384516006101561106257602e602686015384516007101561106257602e60278601538051602610156110625760ff60f81b6046820151165f1a8551600810156110625760288601538051602710156110625760ff60f81b6047820151165f1a8551600910156110625760298601538051602810156110625760ff60f81b6048820151165f1a8551600a101561106257602a86015380516029101561106257604960ff60f81b910151165f1a8451600b101561106257602b8501535161056f906125a3565b89517f3c73766720786d6c6e733d22687474703a2f2f7777772e77332e6f72672f32306020808301919091527f30302f737667222076696577426f783d22302030203530302035303022207769828d01527f6474683d2235303022206865696768743d22353030223e0000000000000000006060830152651e3232b3399f60d11b60778301527f3c72616469616c4772616469656e742069643d22626747726164222063783d22607d830152751a9812911031bc9e911a98129110391e911a9812911f60511b609d8301527f3c73746f70206f66667365743d223025222073746f702d636f6c6f723d22233160b38301526730981a999991179f60c11b60d38301527f3c73746f70206f66667365743d2231303025222073746f702d636f6c6f723d2260db83018190526911981b981c183311179f60b11b60fb840152701e17b930b234b0b623b930b234b2b73a1f60791b6101058401527f3c6c696e6561724772616469656e742069643d22626f726465724772616422206101168401527f78313d223025222079313d223025222078323d2231303025222079323d223130610136840152631812911f60e11b6101568401527f3c73746f70206f66667365743d223025222073746f702d636f6c6f723d22233961015a84015267199999b2b091179f60c11b61017a84015261018283018190526911989a311c309b11179f60b11b6101a2840152701e17b634b732b0b923b930b234b2b73a1f60791b6101ac84018190527f3c6c696e6561724772616469656e742069643d226c6567656e646172794772616101bd8501527f64222078313d223025222079313d223025222078323d2231303025222079323d6101dd85015264111812911f60d91b6101fd8501527f3c73746f70206f66667365743d223025222073746f702d636f6c6f723d222366610202850152671a9cb2983111179f60c11b6102228501527f3c73746f70206f66667365743d22353025222073746f702d636f6c6f723d222361022a8501526832b31a1a1a1a11179f60b91b61024a85015261025384019190915269119c311ab1b31b11179f60b11b6102738401527f3c616e696d617465206174747269627574654e616d653d227831222076616c7561027d8401527f65733d2230253b313030253b302522206475723d22337322207265706561744361029d8401527337bab73a1e9134b73232b334b734ba329110179f60611b6102bd8401527f3c616e696d617465206174747269627574654e616d653d227832222076616c756102d18401527f65733d22313030253b30253b3130302522206475723d223373222072657065616102f1840152753a21b7bab73a1e9134b73232b334b734ba329110179f60511b610311840152610327830152661e17b232b3399f60c91b6103388301527f3c726563742077696474683d2235303022206865696768743d2235303022206661033f8301527334b6361e913ab9361411b133a3b930b21491179f60611b61035f8301527f3c7265637420783d2231302220793d223130222077696474683d2234383022206103738301527f6865696768743d22343830222066696c6c3d226e6f6e6522207374726f6b653d6103938301527f2275726c2823626f72646572477261642922207374726f6b652d77696474683d6103b38301526c111a1110393c1e91189a91179f60991b6103d38301527f3c7465787420783d223235302220793d2238302220666f6e742d66616d696c796103e08301527f3d2273616e732d73657269662220666f6e742d73697a653d2232342220666f6e6104008301527f742d7765696768743d22626f6c64222066696c6c3d22776869746522207465786104208301527f742d616e63686f723d226d6964646c65223e4d7973746963616c20466f727475610440830152636e65202360e01b6104608301528851919a8b999398939092918291016104648b015e661e17ba32bc3a1f60c91b610464918a01918201527f3c7465787420783d223235302220793d223134302220666f6e742d66616d696c61046b8201527f793d2273616e732d73657269662220666f6e742d73697a653d2234302220666961048b8201526336361e9160e11b6104ab82015281519182906020016104af83015e0161046401604b81017f2220746578742d616e63686f723d226d6964646c65223e000000000000000000905281516020819301606283015e01604b0160178101661e17ba32bc3a1f60c91b9052601e81017f3c7265637420783d2234302220793d22313830222077696474683d22343230229052603e81017f206865696768743d22313230222066696c6c3d2223666666666666222066696c9052605e81017f6c2d6f7061636974793d22302e3035222072783d223130222f3e0000000000009052607881017f3c7465787420783d223235302220793d223233302220666f6e742d66616d696c9052609881017f793d2273616e732d73657269662220666f6e742d73697a653d22313822206669905260b881017f6c6c3d2277686974652220746578742d616e63686f723d226d6964646c65223e90528151602081930160d883015e0160170160c18101661e17ba32bc3a1f60c91b905260c881017f3c7465787420783d223235302220793d223236302220666f6e742d66616d696c905260e881017f793d2273616e732d73657269662220666f6e742d73697a653d22313822206669905261010881017f6c6c3d2277686974652220746578742d616e63686f723d226d6964646c65223e90528151602081930161012883015e0160c1019060678201661e17ba32bc3a1f60c91b9052606e82017f3c7465787420783d223235302220793d223430302220666f6e742d66616d696c9052608e82017f793d226d6f6e6f73706163652220666f6e742d73697a653d223134222066696c905260ae82017f6c3d22236138623264312220746578742d616e63686f723d226d6964646c6522905260ce82016801f2bb0b63632ba1d160bd1b905251809260d783015e0160670160708101661e17ba32bc3a1f60c91b9052607781017f3c7465787420783d223235302220793d223433302220666f6e742d66616d696c9052609781017f793d2273616e732d73657269662220666f6e742d73697a653d22313422206669905260b781017f6c6c3d22236138623264312220746578742d616e63686f723d226d6964646c659052690111f26b4b73a32b21d160b51b60d78201528151602081930160e183015e0160700160718101661e17ba32bc3a1f60c91b905260788101651e17b9bb339f60d11b90520360710160121981018352600d01610ee99083611fa2565b610ef2906125a3565b90610efc906128b3565b908251918291602083017f7b226e616d65223a2022536f6d6e696120466f7274756e652023000000000000905280516020819201603a85015e7f222c20226465736372697074696f6e223a20224f6e2d636861696e206d797374603a918401918201527f6963616c20666f7274756e65204e465420666f7220536f6d6e69612e222c2022605a8201527f696d616765223a2022646174613a696d6167652f7376672b786d6c3b62617365607a820152620d8d0b60ea1b609a8201528151918290602001609d83015e01603a0161227d60f01b606382015203606301601d1981018252600201610feb9082611fa2565b610ff4906128b3565b9080518092602082017f646174613a6170706c69636174696f6e2f6a736f6e3b6261736536342c000000905280516020819201603d84015e8101603d81015f905203603d01601f198101835261104a9083611fa2565b518091602082526020820161105e91611f36565b0390f35b634e487b7160e01b5f52603260045260245ffd5b63e22e27eb60e01b5f52600452601460245260445ffd5b90600f81166010811015611062576f181899199a1a9b1b9c1cb0b131b232b360811b901a6110bb838f612742565b5360041c9080156110ce575f19016103a7565b634e487b7160e01b5f52601160045260245ffd5b5160038110156111825760010361113c57604080516111018282611fa2565b6006815265e29885e2988560d01b6020820152815190916111229082611fa2565b60078152662366306234336160c81b602082015293610327565b6040805161114a8282611fa2565b6003815262e2988560e81b6020820152815190916111689082611fa2565b600781526611b3333333333360c91b602082015293610327565b634e487b7160e01b5f52602160045260245ffd5b60405162461bcd60e51b815260206004820152601f60248201527f55524920717565727920666f72206e6f6e6578697374656e7420746f6b656e006044820152606490fd5b34610145576080366003190112610145576111f4611f5a565b6111fc611f70565b906044356064359267ffffffffffffffff8411610145573660238501121561014557611235611247943690602481600401359101611fe0565b92611241838383612141565b3361246d565b005b3461014557604036600319011261014557611262611f5a565b602435908115158092036101455733156112ea576001600160a01b03169081156112d757335f52600560205260405f20825f5260205260405f2060ff1981541660ff83161790556040519081527f17307eab39ab6107e8899845ad3d59bd9653f200f220920489ca2b5937696c3160203392a3005b50630b61174360e31b5f5260045260245ffd5b63a9fbf51f60e01b5f525f60045260245ffd5b34610145575f366003190112610145576040515f60015461131d81612050565b80845290600181169081156113b75750600114611359575b61105e8361134581850382611fa2565b604051918291602083526020830190611f36565b60015f9081527fb10e2d527612073b26eecdfd717e6a320cf44b4afac2b0732d9fcbe2b7fa0cf6939250905b80821061139d57509091508101602001611345611335565b919260018160209254838588010152019101909291611385565b60ff191660208086019190915291151560051b840190910191506113459050611335565b34610145575f36600319011261014557600a546040516001600160a01b039091168152602090f35b34610145576020366003190112610145576004355f908152600d6020526040902080546001600160a01b031661143b60018301612088565b9161105e60028201549160038101549060ff600560048301549201541691611475604051978897885260c0602089015260c0880190611f36565b9460408701526060860152608085015260a0840190612128565b34610145575f366003190112610145576114a7612446565b600a80546001600160a01b031981169091555f906001600160a01b03167f8be0079c531659141344cd1fd0a4f28419497f9722a3daafe3b4186f6b6457e08280a3005b3461014557602036600319011261014557602061150d611508611f5a565b6123e1565b604051908152f35b34610145575f366003190112610145576020600c54604051908152f35b34610145576020366003190112610145576020611550600435612412565b6040516001600160a01b039091168152f35b346101455760203660031901126101455760043560085481101561159a5761158b6020916123c9565b90549060031b1c604051908152f35b63295f44f760e21b5f525f60045260245260445ffd5b34610145576112476115c136612016565b90604051926115d1602085611fa2565b5f8452611241838383612141565b34610145575f366003190112610145576115f7612446565b5f8080804760018060a01b03600a5416828215611622575bf11561161757005b6040513d5f823e3d90fd5b506108fc61160f565b3461014557604036600319011261014557611644611f5a565b60243590611651816123e1565b8210156116805760018060a01b03165f52600660205260405f20905f52602052602060405f2054604051908152f35b63295f44f760e21b5f5260018060a01b031660045260245260445ffd5b34610145576112476116ae36612016565b91612141565b34610145575f366003190112610145576020600854604051908152f35b60603660031901126101455760043567ffffffffffffffff811161014557366023820112156101455761170e903690602481600401359101611fe0565b6024359060443591600c543410611ca4576101f4811180611c93575b15611c7d5760025b600b5491600183018093116110ce5782600b5560405161175181611f86565b33815260208101958587526040820192835260608201908152608082019042825260a08301936117818686612135565b5f878152600d60205260409020935184546001600160a01b0319166001600160a01b039190911617845597518051909890600185019067ffffffffffffffff8111611af7576117d08254612050565b601f8111611c38575b506020601f8211600114611bd0578190600598999a9b9c5f92611bc5575b50508160011b915f199060031b1c19161790555b51600284015551600383015551600482015501905160038110156111825760ff801983541691161790556020926040516118458582611fa2565b5f81523315611bb2575f8481526002865260409020546001600160a01b031680158015919082611b81575b335f81815260038a5260408082208054600101905589825260028b52812080546001600160a01b0319168317905588919084907fddf252ad1be2c89b69c2b068fc378daa952ba7f163c4a11628f55a4df523b3ef9080a415611b0b57600854865f52600988528060405f2055600160401b811015611af757866118fc82600161191494016008556123c9565b90919082549060031b91821b915f19901b1916179055565b338103611abc575b50611aa9578490333b61197d575b505061196f7fe9b768ca27b477e24ef7c94bd6177cbf41ae119d779cbc3f0f58896d5d467f519261196660405193606085526060850190611f36565b95830190612128565b4260408201528033940390a3005b906119b69160405180938192630a85bd0160e11b83523360048401525f6024840152886044840152608060648401526084830190611f36565b03815f335af15f9181611a69575b50611a1857843d15611a10573d906119db82611fc4565b916119e96040519384611fa2565b82523d5f8284013e5b81519182611a0d57633250574960e11b5f523360045260245ffd5b01fd5b6060906119f2565b6001600160e01b03191663757a42ff60e11b01611a5657837fe9b768ca27b477e24ef7c94bd6177cbf41ae119d779cbc3f0f58896d5d467f5161192a565b633250574960e11b5f523360045260245ffd5b9091508581813d8311611aa2575b611a818183611fa2565b8101031261014557516001600160e01b0319811681036101455790866119c4565b503d611a77565b6339e3563760e11b5f525f60045260245ffd5b611ac5336123e1565b5f1981019081116110ce57335f526006885260405f20815f5288528660405f2055865f526007885260405f205561191c565b634e487b7160e01b5f52604160045260245ffd5b33811461191457611b1b816123e1565b865f526007885260405f205490825f526006895260405f2091818103611b59575b50875f52600789525f60408120555f5287525f6040812055611914565b815f52828a5260405f2054815f52838b528060405f20555f5260078a5260405f205589611b3c565b5f8781526004602052604080822080546001600160a01b031916905583825260038a52902080545f19019055611870565b633250574960e11b5f525f60045260245ffd5b015190508c806117f7565b601f1982169b835f52815f209c5f5b818110611c205750916005999a9b9c9d91846001959410611c08575b505050811b01905561180b565b01515f1960f88460031b161c191690558c8080611bfb565b838301518f556001909e019d60209384019301611bdf565b825f5260205f20601f830160051c81019160208410611c73575b601f0160051c01905b818110611c6857506117d9565b5f8155600101611c5b565b9091508190611c52565b6064811115611c8d576001611732565b5f611732565b50678ac7230489e80000831161172a565b60405162461bcd60e51b815260206004820152601a60248201527f496e73756666696369656e742066756e647320746f206d696e740000000000006044820152606490fd5b3461014557604036600319011261014557611d02611f5a565b602435611d0e81612412565b33151580611dc0575b80611d93575b611d805781906001600160a01b0384811691167f8c5be1e5ebec7d5bd14f71427d1e84f3dd0314c0f7b2291e5b200ac8c7c3b9255f80a45f90815260046020526040902080546001600160a01b0319166001600160a01b03909216919091179055005b63a9fbf51f60e01b5f523360045260245ffd5b506001600160a01b0381165f90815260056020908152604080832033845290915290205460ff1615611d1d565b506001600160a01b038116331415611d17565b3461014557602036600319011261014557600435611df081612412565b505f526004602052602060018060a01b0360405f205416604051908152f35b34610145575f366003190112610145576040515f5f54611e2e81612050565b80845290600181169081156113b75750600114611e555761105e8361134581850382611fa2565b5f8080527f290decd9548b62a8d60345a988386fc84ba6bc95484008f6362f93160ef3e563939250905b808210611e9757509091508101602001611345611335565b919260018160209254838588010152019101909291611e7f565b34610145576020366003190112610145576004359063ffffffff60e01b82168092036101455760209163780e9d6360e01b8114908115611ef3575b5015158152f35b6380ac58cd60e01b811491508115611f25575b8115611f14575b5083611eec565b6301ffc9a760e01b14905083611f0d565b635b5e139f60e01b81149150611f06565b805180835260209291819084018484015e5f828201840152601f01601f1916010190565b600435906001600160a01b038216820361014557565b602435906001600160a01b038216820361014557565b60c0810190811067ffffffffffffffff821117611af757604052565b90601f8019910116810190811067ffffffffffffffff821117611af757604052565b67ffffffffffffffff8111611af757601f01601f191660200190565b929192611fec82611fc4565b91611ffa6040519384611fa2565b829481845281830111610145578281602093845f960137010152565b6060906003190112610145576004356001600160a01b038116810361014557906024356001600160a01b0381168103610145579060443590565b90600182811c9216801561207e575b602083101461206a57565b634e487b7160e01b5f52602260045260245ffd5b91607f169161205f565b9060405191825f82549261209b84612050565b808452936001811690811561210657506001146120c2575b506120c092500383611fa2565b565b90505f9291925260205f20905f915b8183106120ea5750509060206120c0928201015f6120b3565b60209193508060019154838589010152019101909184926120d1565b9050602092506120c094915060ff191682840152151560051b8201015f6120b3565b9060038210156111825752565b60038210156111825752565b9091906001600160a01b0383168015611bb2575f838152600260205260409020546001600160a01b03169333151580612339575b5084158015612306575b825f52600360205260405f2060018154019055845f52600260205260405f20836bffffffffffffffffffffffff60a01b8254161790558483877fddf252ad1be2c89b69c2b068fc378daa952ba7f163c4a11628f55a4df523b3ef5f80a41561228957600854845f5260096020528060405f2055600160401b811015611af757846118fc82600161221294016008556123c9565b818503612249575b50506001600160a01b031680830361223157505050565b6364283d7b60e01b5f5260045260245260445260645ffd5b612252906123e1565b5f198101919082116110ce575f52600660205260405f20815f526020528260405f2055825f52600760205260405f20555f8061221a565b84821461221257612299856123e1565b845f52600760205260405f205490865f52600660205260405f20918181036122db575b50855f5260076020525f60408120555f526020525f6040812055612212565b815f528260205260405f2054815f52836020528060405f20555f52600760205260405f20555f6122bc565b5f85815260046020526040902080546001600160a01b0319169055855f52600360205260405f205f19815401905561217f565b80612378575b1561234a575f612175565b838561236257637e27328960e01b5f5260045260245ffd5b63177e802f60e01b5f523360045260245260445ffd5b5033851480156123a7575b8061233f57505f848152600460205260409020546001600160a01b0316331461233f565b505f85815260056020908152604080832033845290915290205460ff16612383565b6008548110156110625760085f5260205f2001905f90565b6001600160a01b031680156123ff575f52600360205260405f205490565b6322718ad960e21b5f525f60045260245ffd5b5f818152600260205260409020546001600160a01b0316908115612434575090565b637e27328960e01b5f5260045260245ffd5b600a546001600160a01b0316330361245a57565b63118cdaa760e01b5f523360045260245ffd5b823b61247b575b5050505050565b604051630a85bd0160e11b81526001600160a01b0391821660048201529181166024830152604482019390935260806064820152911691602090829081906124c7906084830190611f36565b03815f865af15f918161255e575b5061252a57503d15612523573d6124eb81611fc4565b906124f96040519283611fa2565b81523d5f602083013e5b8051908161251e5782633250574960e11b5f5260045260245ffd5b602001fd5b6060612503565b6001600160e01b03191663757a42ff60e11b0161254c57505f80808080612474565b633250574960e11b5f5260045260245ffd5b9091506020813d60201161259b575b8161257a60209383611fa2565b8101031261014557516001600160e01b03198116810361014557905f6124d5565b3d915061256d565b805f9172184f03e93ff9f4daa797ed6e38ed64bf6a1f0160401b8210156126ed575b806d04ee2d6d415b85acef8100000000600a9210156126d2575b662386f26fc100008110156126be575b6305f5e1008110156126ad575b61271081101561269e575b6064811015612690575b1015612685575b600a6021600184019361262a85611fc4565b946126386040519687611fa2565b808652612647601f1991611fc4565b013660208701378401015b5f1901916f181899199a1a9b1b9c1cb0b131b232b360811b8282061a835304801561268057600a9091612652565b505090565b600190910190612618565b606460029104930192612611565b61271060049104930192612607565b6305f5e100600891049301926125fc565b662386f26fc10000601091049301926125ef565b6d04ee2d6d415b85acef8100000000602091049301926125df565b506040915072184f03e93ff9f4daa797ed6e38ed64bf6a1f0160401b81046125c5565b9061271a82611fc4565b6127276040519182611fa2565b8281528092612738601f1991611fc4565b0190602036910137565b908151811015611062570160200190565b805115612807578051806028115f146127fe57905b61277182612710565b915f5b8181106127d3575060281490816127c7575b5061278e5790565b6127c46003602080936040519481869251918291018484015e81016217171760e91b838201520301601c19810184520182611fa2565b90565b9050516028105f612786565b6001906001600160f81b03196127e98286612742565b51165f1a6127f78287612742565b5301612774565b50602890612768565b50604051612816602082611fa2565b5f815290565b805160281015612807578051806050115f146128aa57905b60271982018281116110ce5761284990612710565b9160285b81811061287257506050149081612866575061278e5790565b9050516050105f612786565b6001600160f81b03196128858285612742565b51169060271981018181116110ce576128a36001935f1a9187612742565b530161284d565b50605090612834565b908151156129d2578151600281018091116110ce5760039004600281901b91906001600160fe1b038116036110ce57604051917f4142434445464748494a4b4c4d4e4f505152535455565758595a616263646566601f527f6768696a6b6c6d6e6f707172737475767778797a303132333435363738392b2f603f52602083018480518101602081018051915f82525b808910612996575060209596975090600392915251068060011461298157600214612974575b50808452830101604052565b603d905f1901535f612968565b50603d90815f1982015360011901535f612968565b939760036004910198603f8a51818160121c165183538181600c1c16516001840153818160061c16516002840153165160038201530193612942565b9050604051612816602082611fa256fea2646970667358221220b87e395033b9504def4b56ace012a5e02d7d769fd59c36fd306abb85b4b4144064736f6c634300081e0033","opcodes":"PUSH1 0x80 PUSH1 0x40 MSTORE CALLVALUE PUSH2 0x389 JUMPI PUSH1 0x40 DUP1 MLOAD SWAP1 DUP2 ADD PUSH1 0x1 PUSH1 0x1 PUSH1 0x40 SHL SUB DUP2 GT DUP3 DUP3 LT OR PUSH2 0x29F JUMPI PUSH1 0x40 SWAP1 DUP2 MSTORE PUSH1 0x14 DUP3 MSTORE PUSH32 0x536F6D6E696157686973706572466F7274756E65000000000000000000000000 PUSH1 0x20 DUP4 ADD MSTORE DUP1 MLOAD SWAP1 DUP2 ADD PUSH1 0x1 PUSH1 0x1 PUSH1 0x40 SHL SUB DUP2 GT DUP3 DUP3 LT OR PUSH2 0x29F JUMPI PUSH1 0x40 MSTORE PUSH1 0x3 DUP2 MSTORE PUSH3 0x29ABA3 PUSH1 0xE9 SHL PUSH1 0x20 DUP3 ADD MSTORE DUP2 MLOAD PUSH1 0x1 PUSH1 0x1 PUSH1 0x40 SHL SUB DUP2 GT PUSH2 0x29F JUMPI PUSH0 SLOAD PUSH1 0x1 DUP2 DUP2 SHR SWAP2 AND DUP1 ISZERO PUSH2 0x37F JUMPI JUMPDEST PUSH1 0x20 DUP3 LT EQ PUSH2 0x281 JUMPI PUSH1 0x1F DUP2 GT PUSH2 0x31D JUMPI JUMPDEST POP PUSH1 0x20 SWAP3 PUSH1 0x1F DUP3 GT PUSH1 0x1 EQ PUSH2 0x2BE JUMPI SWAP3 DUP2 SWAP3 SWAP4 PUSH0 SWAP3 PUSH2 0x2B3 JUMPI JUMPDEST POP POP DUP2 PUSH1 0x1 SHL SWAP2 PUSH0 NOT SWAP1 PUSH1 0x3 SHL SHR NOT AND OR PUSH0 SSTORE JUMPDEST DUP1 MLOAD PUSH1 0x1 PUSH1 0x1 PUSH1 0x40 SHL SUB DUP2 GT PUSH2 0x29F JUMPI PUSH1 0x1 SLOAD PUSH1 0x1 DUP2 DUP2 SHR SWAP2 AND DUP1 ISZERO PUSH2 0x295 JUMPI JUMPDEST PUSH1 0x20 DUP3 LT EQ PUSH2 0x281 JUMPI PUSH1 0x1F DUP2 GT PUSH2 0x21E JUMPI JUMPDEST POP PUSH1 0x20 SWAP2 PUSH1 0x1F DUP3 GT PUSH1 0x1 EQ PUSH2 0x1BE JUMPI SWAP2 DUP2 SWAP3 PUSH0 SWAP3 PUSH2 0x1B3 JUMPI JUMPDEST POP POP DUP2 PUSH1 0x1 SHL SWAP2 PUSH0 NOT SWAP1 PUSH1 0x3 SHL SHR NOT AND OR PUSH1 0x1 SSTORE JUMPDEST CALLER ISZERO PUSH2 0x1A0 JUMPI PUSH1 0xA DUP1 SLOAD CALLER PUSH1 0x1 PUSH1 0x1 PUSH1 0xA0 SHL SUB NOT DUP3 AND DUP2 OR SWAP1 SWAP3 SSTORE PUSH1 0x40 MLOAD SWAP2 SWAP1 PUSH1 0x1 PUSH1 0x1 PUSH1 0xA0 SHL SUB AND PUSH32 0x8BE0079C531659141344CD1FD0A4F28419497F9722A3DAAFE3B4186F6B6457E0 PUSH0 DUP1 LOG3 PUSH7 0x38D7EA4C68000 PUSH1 0xC SSTORE PUSH2 0x2A18 SWAP1 DUP2 PUSH2 0x38E DUP3 CODECOPY RETURN JUMPDEST PUSH4 0x1E4FBDF7 PUSH1 0xE0 SHL PUSH0 MSTORE PUSH0 PUSH1 0x4 MSTORE PUSH1 0x24 PUSH0 REVERT JUMPDEST ADD MLOAD SWAP1 POP PUSH0 DUP1 PUSH2 0x127 JUMP JUMPDEST PUSH1 0x1F NOT DUP3 AND SWAP3 PUSH1 0x1 PUSH0 MSTORE DUP1 PUSH0 KECCAK256 SWAP2 PUSH0 JUMPDEST DUP6 DUP2 LT PUSH2 0x206 JUMPI POP DUP4 PUSH1 0x1 SWAP6 LT PUSH2 0x1EE JUMPI JUMPDEST POP POP POP DUP2 SHL ADD PUSH1 0x1 SSTORE PUSH2 0x13C JUMP JUMPDEST ADD MLOAD PUSH0 NOT PUSH1 0xF8 DUP5 PUSH1 0x3 SHL AND SHR NOT AND SWAP1 SSTORE PUSH0 DUP1 DUP1 PUSH2 0x1E0 JUMP JUMPDEST SWAP2 SWAP3 PUSH1 0x20 PUSH1 0x1 DUP2 SWAP3 DUP7 DUP6 ADD MLOAD DUP2 SSTORE ADD SWAP5 ADD SWAP3 ADD PUSH2 0x1CE JUMP JUMPDEST PUSH1 0x1 PUSH0 MSTORE PUSH32 0xB10E2D527612073B26EECDFD717E6A320CF44B4AFAC2B0732D9FCBE2B7FA0CF6 PUSH1 0x1F DUP4 ADD PUSH1 0x5 SHR DUP2 ADD SWAP2 PUSH1 0x20 DUP5 LT PUSH2 0x277 JUMPI JUMPDEST PUSH1 0x1F ADD PUSH1 0x5 SHR ADD SWAP1 JUMPDEST DUP2 DUP2 LT PUSH2 0x26C JUMPI POP PUSH2 0x10E JUMP JUMPDEST PUSH0 DUP2 SSTORE PUSH1 0x1 ADD PUSH2 0x25F JUMP JUMPDEST SWAP1 SWAP2 POP DUP2 SWAP1 PUSH2 0x256 JUMP JUMPDEST PUSH4 0x4E487B71 PUSH1 0xE0 SHL PUSH0 MSTORE PUSH1 0x22 PUSH1 0x4 MSTORE PUSH1 0x24 PUSH0 REVERT JUMPDEST SWAP1 PUSH1 0x7F AND SWAP1 PUSH2 0xFC JUMP JUMPDEST PUSH4 0x4E487B71 PUSH1 0xE0 SHL PUSH0 MSTORE PUSH1 0x41 PUSH1 0x4 MSTORE PUSH1 0x24 PUSH0 REVERT JUMPDEST ADD MLOAD SWAP1 POP PUSH0 DUP1 PUSH2 0xC7 JUMP JUMPDEST PUSH1 0x1F NOT DUP3 AND SWAP4 PUSH0 DUP1 MSTORE DUP1 PUSH0 KECCAK256 SWAP2 PUSH0 JUMPDEST DUP7 DUP2 LT PUSH2 0x305 JUMPI POP DUP4 PUSH1 0x1 SWAP6 SWAP7 LT PUSH2 0x2ED JUMPI JUMPDEST POP POP POP DUP2 SHL ADD PUSH0 SSTORE PUSH2 0xDB JUMP JUMPDEST ADD MLOAD PUSH0 NOT PUSH1 0xF8 DUP5 PUSH1 0x3 SHL AND SHR NOT AND SWAP1 SSTORE PUSH0 DUP1 DUP1 PUSH2 0x2E0 JUMP JUMPDEST SWAP2 SWAP3 PUSH1 0x20 PUSH1 0x1 DUP2 SWAP3 DUP7 DUP6 ADD MLOAD DUP2 SSTORE ADD SWAP5 ADD SWAP3 ADD PUSH2 0x2CD JUMP JUMPDEST PUSH0 DUP1 MSTORE PUSH32 0x290DECD9548B62A8D60345A988386FC84BA6BC95484008F6362F93160EF3E563 PUSH1 0x1F DUP4 ADD PUSH1 0x5 SHR DUP2 ADD SWAP2 PUSH1 0x20 DUP5 LT PUSH2 0x375 JUMPI JUMPDEST PUSH1 0x1F ADD PUSH1 0x5 SHR ADD SWAP1 JUMPDEST DUP2 DUP2 LT PUSH2 0x36A JUMPI POP PUSH2 0xAD JUMP JUMPDEST PUSH0 DUP2 SSTORE PUSH1 0x1 ADD PUSH2 0x35D JUMP JUMPDEST SWAP1 SWAP2 POP DUP2 SWAP1 PUSH2 0x354 JUMP JUMPDEST SWAP1 PUSH1 0x7F AND SWAP1 PUSH2 0x9B JUMP JUMPDEST PUSH0 DUP1 REVERT INVALID PUSH1 0x80 DUP1 PUSH1 0x40 MSTORE PUSH1 0x4 CALLDATASIZE LT ISZERO PUSH2 0x12 JUMPI PUSH0 DUP1 REVERT JUMPDEST PUSH0 CALLDATALOAD PUSH1 0xE0 SHR SWAP1 DUP2 PUSH4 0x1FFC9A7 EQ PUSH2 0x1EB1 JUMPI POP DUP1 PUSH4 0x6FDDE03 EQ PUSH2 0x1E0F JUMPI DUP1 PUSH4 0x81812FC EQ PUSH2 0x1DD3 JUMPI DUP1 PUSH4 0x95EA7B3 EQ PUSH2 0x1CE9 JUMPI DUP1 PUSH4 0xA1D0095 EQ PUSH2 0x16D1 JUMPI DUP1 PUSH4 0x18160DDD EQ PUSH2 0x16B4 JUMPI DUP1 PUSH4 0x23B872DD EQ PUSH2 0x169D JUMPI DUP1 PUSH4 0x2F745C59 EQ PUSH2 0x162B JUMPI DUP1 PUSH4 0x3CCFD60B EQ PUSH2 0x15DF JUMPI DUP1 PUSH4 0x42842E0E EQ PUSH2 0x15B0 JUMPI DUP1 PUSH4 0x4F6CCCE7 EQ PUSH2 0x1562 JUMPI DUP1 PUSH4 0x6352211E EQ PUSH2 0x1532 JUMPI DUP1 PUSH4 0x6817C76C EQ PUSH2 0x1515 JUMPI DUP1 PUSH4 0x70A08231 EQ PUSH2 0x14EA JUMPI DUP1 PUSH4 0x715018A6 EQ PUSH2 0x148F JUMPI DUP1 PUSH4 0x8C8005A3 EQ PUSH2 0x1403 JUMPI DUP1 PUSH4 0x8DA5CB5B EQ PUSH2 0x13DB JUMPI DUP1 PUSH4 0x95D89B41 EQ PUSH2 0x12FD JUMPI DUP1 PUSH4 0xA22CB465 EQ PUSH2 0x1249 JUMPI DUP1 PUSH4 0xB88D4FDE EQ PUSH2 0x11DB JUMPI DUP1 PUSH4 0xC87B56DD EQ PUSH2 0x226 JUMPI DUP1 PUSH4 0xE985E9C5 EQ PUSH2 0x1CF JUMPI DUP1 PUSH4 0xF2FDE38B EQ PUSH2 0x149 JUMPI PUSH4 0xF4A0A528 EQ PUSH2 0x124 JUMPI PUSH0 DUP1 REVERT JUMPDEST CALLVALUE PUSH2 0x145 JUMPI PUSH1 0x20 CALLDATASIZE PUSH1 0x3 NOT ADD SLT PUSH2 0x145 JUMPI PUSH2 0x13D PUSH2 0x2446 JUMP JUMPDEST PUSH1 0x4 CALLDATALOAD PUSH1 0xC SSTORE STOP JUMPDEST PUSH0 DUP1 REVERT JUMPDEST CALLVALUE PUSH2 0x145 JUMPI PUSH1 0x20 CALLDATASIZE PUSH1 0x3 NOT ADD SLT PUSH2 0x145 JUMPI PUSH2 0x162 PUSH2 0x1F5A JUMP JUMPDEST PUSH2 0x16A PUSH2 0x2446 JUMP JUMPDEST PUSH1 0x1 PUSH1 0x1 PUSH1 0xA0 SHL SUB AND DUP1 ISZERO PUSH2 0x1BC JUMPI PUSH1 0xA DUP1 SLOAD PUSH1 0x1 PUSH1 0x1 PUSH1 0xA0 SHL SUB NOT DUP2 AND DUP4 OR SWAP1 SWAP2 SSTORE PUSH1 0x1 PUSH1 0x1 PUSH1 0xA0 SHL SUB AND PUSH32 0x8BE0079C531659141344CD1FD0A4F28419497F9722A3DAAFE3B4186F6B6457E0 PUSH0 DUP1 LOG3 STOP JUMPDEST PUSH4 0x1E4FBDF7 PUSH1 0xE0 SHL PUSH0 MSTORE PUSH0 PUSH1 0x4 MSTORE PUSH1 0x24 PUSH0 REVERT JUMPDEST CALLVALUE PUSH2 0x145 JUMPI PUSH1 0x40 CALLDATASIZE PUSH1 0x3 NOT ADD SLT PUSH2 0x145 JUMPI PUSH2 0x1E8 PUSH2 0x1F5A JUMP JUMPDEST PUSH2 0x1F0 PUSH2 0x1F70 JUMP JUMPDEST SWAP1 PUSH1 0x1 DUP1 PUSH1 0xA0 SHL SUB AND PUSH0 MSTORE PUSH1 0x5 PUSH1 0x20 MSTORE PUSH1 0x40 PUSH0 KECCAK256 SWAP1 PUSH1 0x1 DUP1 PUSH1 0xA0 SHL SUB AND PUSH0 MSTORE PUSH1 0x20 MSTORE PUSH1 0x20 PUSH1 0xFF PUSH1 0x40 PUSH0 KECCAK256 SLOAD AND PUSH1 0x40 MLOAD SWAP1 ISZERO ISZERO DUP2 MSTORE RETURN JUMPDEST CALLVALUE PUSH2 0x145 JUMPI PUSH1 0x20 CALLDATASIZE PUSH1 0x3 NOT ADD SLT PUSH2 0x145 JUMPI PUSH1 0x4 CALLDATALOAD DUP1 PUSH0 MSTORE PUSH1 0xD PUSH1 0x20 MSTORE PUSH1 0x4 PUSH1 0x40 PUSH0 KECCAK256 ADD SLOAD ISZERO PUSH2 0x1196 JUMPI DUP1 PUSH0 MSTORE PUSH1 0xD PUSH1 0x20 MSTORE PUSH1 0x40 PUSH0 KECCAK256 SWAP1 PUSH1 0x40 MLOAD SWAP1 PUSH2 0x269 DUP3 PUSH2 0x1F86 JUMP JUMPDEST DUP3 SLOAD PUSH1 0x1 PUSH1 0x1 PUSH1 0xA0 SHL SUB AND DUP3 MSTORE PUSH2 0x282 PUSH1 0x1 DUP5 ADD PUSH2 0x2088 JUMP JUMPDEST SWAP2 PUSH1 0x20 DUP2 ADD SWAP3 DUP4 MSTORE PUSH1 0x2 DUP5 ADD SLOAD PUSH1 0x40 DUP3 ADD MSTORE PUSH1 0x3 DUP5 ADD SLOAD PUSH1 0x60 DUP3 ADD MSTORE PUSH1 0xFF PUSH1 0x5 PUSH1 0x4 DUP7 ADD SLOAD SWAP6 PUSH1 0x80 DUP5 ADD SWAP7 DUP8 MSTORE ADD SLOAD AND PUSH2 0x2C0 PUSH1 0xA0 DUP4 ADD SWAP2 DUP3 PUSH2 0x2135 JUMP JUMPDEST DUP1 MLOAD PUSH1 0x3 DUP2 LT ISZERO PUSH2 0x1182 JUMPI PUSH1 0x2 SUB PUSH2 0x10E2 JUMPI POP PUSH1 0x40 DUP1 MLOAD PUSH2 0x2E1 DUP3 DUP3 PUSH2 0x1FA2 JUMP JUMPDEST PUSH1 0x9 DUP2 MSTORE PUSH9 0xE29885E29885E29885 PUSH1 0xB8 SHL PUSH1 0x20 DUP3 ADD MSTORE DUP2 MLOAD SWAP1 SWAP2 PUSH2 0x305 SWAP1 DUP3 PUSH2 0x1FA2 JUMP JUMPDEST PUSH1 0x13 DUP2 MSTORE PUSH19 0x75726C28236C6567656E646172794772616429 PUSH1 0x68 SHL PUSH1 0x20 DUP3 ADD MSTORE SWAP4 JUMPDEST PUSH2 0x33B PUSH2 0x334 DUP3 MLOAD PUSH2 0x2753 JUMP JUMPDEST SWAP2 MLOAD PUSH2 0x281C JUMP JUMPDEST PUSH2 0x344 DUP6 PUSH2 0x25A3 JUMP JUMPDEST SWAP4 MLOAD PUSH1 0x1 PUSH1 0x1 PUSH1 0xA0 SHL SUB AND SWAP2 DUP3 SWAP2 SWAP1 PUSH2 0x35D PUSH1 0x2A PUSH2 0x1FC4 JUMP JUMPDEST SWAP9 PUSH2 0x36B PUSH1 0x40 MLOAD SWAP11 DUP12 PUSH2 0x1FA2 JUMP JUMPDEST PUSH1 0x2A DUP11 MSTORE PUSH2 0x379 PUSH1 0x2A PUSH2 0x1FC4 JUMP JUMPDEST PUSH1 0x20 DUP12 ADD SWAP6 SWAP1 PUSH1 0x1F NOT ADD CALLDATASIZE DUP8 CALLDATACOPY DUP11 MLOAD ISZERO PUSH2 0x1062 JUMPI PUSH1 0x30 DUP7 MSTORE8 DUP11 MLOAD PUSH1 0x1 LT ISZERO PUSH2 0x1062 JUMPI PUSH1 0x21 DUP12 ADD SWAP5 PUSH1 0x78 DUP7 MSTORE8 PUSH1 0x29 JUMPDEST PUSH1 0x1 DUP2 GT PUSH2 0x108D JUMPI POP PUSH2 0x1076 JUMPI POP PUSH1 0x40 SWAP10 DUP11 MLOAD SWAP5 PUSH2 0x3C5 DUP13 DUP8 PUSH2 0x1FA2 JUMP JUMPDEST PUSH1 0xC DUP7 MSTORE PUSH1 0x20 DUP7 ADD SWAP7 PUSH1 0x1F NOT DUP14 ADD CALLDATASIZE DUP10 CALLDATACOPY DUP3 MLOAD ISZERO PUSH2 0x1062 JUMPI PUSH1 0xFF PUSH1 0xF8 SHL SWAP1 MLOAD AND PUSH0 BYTE DUP7 MLOAD ISZERO PUSH2 0x1062 JUMPI DUP8 MSTORE8 DUP2 MLOAD PUSH1 0x1 LT ISZERO PUSH2 0x1062 JUMPI PUSH1 0xFF PUSH1 0xF8 SHL SWAP1 MLOAD AND PUSH0 BYTE DUP6 MLOAD PUSH1 0x1 LT ISZERO PUSH2 0x1062 JUMPI PUSH1 0x21 DUP7 ADD MSTORE8 DUP1 MLOAD PUSH1 0x2 LT ISZERO PUSH2 0x1062 JUMPI PUSH1 0xFF PUSH1 0xF8 SHL PUSH1 0x22 DUP3 ADD MLOAD AND PUSH0 BYTE DUP6 MLOAD PUSH1 0x2 LT ISZERO PUSH2 0x1062 JUMPI PUSH1 0x22 DUP7 ADD MSTORE8 DUP1 MLOAD PUSH1 0x3 LT ISZERO PUSH2 0x1062 JUMPI PUSH1 0xFF PUSH1 0xF8 SHL PUSH1 0x23 DUP3 ADD MLOAD AND PUSH0 BYTE DUP6 MLOAD PUSH1 0x3 LT ISZERO PUSH2 0x1062 JUMPI PUSH1 0x23 DUP7 ADD MSTORE8 DUP1 MLOAD PUSH1 0x4 LT ISZERO PUSH2 0x1062 JUMPI PUSH1 0xFF PUSH1 0xF8 SHL PUSH1 0x24 DUP3 ADD MLOAD AND PUSH0 BYTE DUP6 MLOAD PUSH1 0x4 LT ISZERO PUSH2 0x1062 JUMPI PUSH1 0x24 DUP7 ADD MSTORE8 DUP1 MLOAD PUSH1 0x5 LT ISZERO PUSH2 0x1062 JUMPI PUSH1 0xFF PUSH1 0xF8 SHL PUSH1 0x25 DUP3 ADD MLOAD AND PUSH0 BYTE DUP6 MLOAD PUSH1 0x5 LT ISZERO PUSH2 0x1062 JUMPI PUSH1 0x25 DUP7 ADD MSTORE8 DUP5 MLOAD PUSH1 0x6 LT ISZERO PUSH2 0x1062 JUMPI PUSH1 0x2E PUSH1 0x26 DUP7 ADD MSTORE8 DUP5 MLOAD PUSH1 0x7 LT ISZERO PUSH2 0x1062 JUMPI PUSH1 0x2E PUSH1 0x27 DUP7 ADD MSTORE8 DUP1 MLOAD PUSH1 0x26 LT ISZERO PUSH2 0x1062 JUMPI PUSH1 0xFF PUSH1 0xF8 SHL PUSH1 0x46 DUP3 ADD MLOAD AND PUSH0 BYTE DUP6 MLOAD PUSH1 0x8 LT ISZERO PUSH2 0x1062 JUMPI PUSH1 0x28 DUP7 ADD MSTORE8 DUP1 MLOAD PUSH1 0x27 LT ISZERO PUSH2 0x1062 JUMPI PUSH1 0xFF PUSH1 0xF8 SHL PUSH1 0x47 DUP3 ADD MLOAD AND PUSH0 BYTE DUP6 MLOAD PUSH1 0x9 LT ISZERO PUSH2 0x1062 JUMPI PUSH1 0x29 DUP7 ADD MSTORE8 DUP1 MLOAD PUSH1 0x28 LT ISZERO PUSH2 0x1062 JUMPI PUSH1 0xFF PUSH1 0xF8 SHL PUSH1 0x48 DUP3 ADD MLOAD AND PUSH0 BYTE DUP6 MLOAD PUSH1 0xA LT ISZERO PUSH2 0x1062 JUMPI PUSH1 0x2A DUP7 ADD MSTORE8 DUP1 MLOAD PUSH1 0x29 LT ISZERO PUSH2 0x1062 JUMPI PUSH1 0x49 PUSH1 0xFF PUSH1 0xF8 SHL SWAP2 ADD MLOAD AND PUSH0 BYTE DUP5 MLOAD PUSH1 0xB LT ISZERO PUSH2 0x1062 JUMPI PUSH1 0x2B DUP6 ADD MSTORE8 MLOAD PUSH2 0x56F SWAP1 PUSH2 0x25A3 JUMP JUMPDEST DUP10 MLOAD PUSH32 0x3C73766720786D6C6E733D22687474703A2F2F7777772E77332E6F72672F3230 PUSH1 0x20 DUP1 DUP4 ADD SWAP2 SWAP1 SWAP2 MSTORE PUSH32 0x30302F737667222076696577426F783D22302030203530302035303022207769 DUP3 DUP14 ADD MSTORE PUSH32 0x6474683D2235303022206865696768743D22353030223E000000000000000000 PUSH1 0x60 DUP4 ADD MSTORE PUSH6 0x1E3232B3399F PUSH1 0xD1 SHL PUSH1 0x77 DUP4 ADD MSTORE PUSH32 0x3C72616469616C4772616469656E742069643D22626747726164222063783D22 PUSH1 0x7D DUP4 ADD MSTORE PUSH22 0x1A9812911031BC9E911A98129110391E911A9812911F PUSH1 0x51 SHL PUSH1 0x9D DUP4 ADD MSTORE PUSH32 0x3C73746F70206F66667365743D223025222073746F702D636F6C6F723D222331 PUSH1 0xB3 DUP4 ADD MSTORE PUSH8 0x30981A999991179F PUSH1 0xC1 SHL PUSH1 0xD3 DUP4 ADD MSTORE PUSH32 0x3C73746F70206F66667365743D2231303025222073746F702D636F6C6F723D22 PUSH1 0xDB DUP4 ADD DUP2 SWAP1 MSTORE PUSH10 0x11981B981C183311179F PUSH1 0xB1 SHL PUSH1 0xFB DUP5 ADD MSTORE PUSH17 0x1E17B930B234B0B623B930B234B2B73A1F PUSH1 0x79 SHL PUSH2 0x105 DUP5 ADD MSTORE PUSH32 0x3C6C696E6561724772616469656E742069643D22626F72646572477261642220 PUSH2 0x116 DUP5 ADD MSTORE PUSH32 0x78313D223025222079313D223025222078323D2231303025222079323D223130 PUSH2 0x136 DUP5 ADD MSTORE PUSH4 0x1812911F PUSH1 0xE1 SHL PUSH2 0x156 DUP5 ADD MSTORE PUSH32 0x3C73746F70206F66667365743D223025222073746F702D636F6C6F723D222339 PUSH2 0x15A DUP5 ADD MSTORE PUSH8 0x199999B2B091179F PUSH1 0xC1 SHL PUSH2 0x17A DUP5 ADD MSTORE PUSH2 0x182 DUP4 ADD DUP2 SWAP1 MSTORE PUSH10 0x11989A311C309B11179F PUSH1 0xB1 SHL PUSH2 0x1A2 DUP5 ADD MSTORE PUSH17 0x1E17B634B732B0B923B930B234B2B73A1F PUSH1 0x79 SHL PUSH2 0x1AC DUP5 ADD DUP2 SWAP1 MSTORE PUSH32 0x3C6C696E6561724772616469656E742069643D226C6567656E64617279477261 PUSH2 0x1BD DUP6 ADD MSTORE PUSH32 0x64222078313D223025222079313D223025222078323D2231303025222079323D PUSH2 0x1DD DUP6 ADD MSTORE PUSH5 0x111812911F PUSH1 0xD9 SHL PUSH2 0x1FD DUP6 ADD MSTORE PUSH32 0x3C73746F70206F66667365743D223025222073746F702D636F6C6F723D222366 PUSH2 0x202 DUP6 ADD MSTORE PUSH8 0x1A9CB2983111179F PUSH1 0xC1 SHL PUSH2 0x222 DUP6 ADD MSTORE PUSH32 0x3C73746F70206F66667365743D22353025222073746F702D636F6C6F723D2223 PUSH2 0x22A DUP6 ADD MSTORE PUSH9 0x32B31A1A1A1A11179F PUSH1 0xB9 SHL PUSH2 0x24A DUP6 ADD MSTORE PUSH2 0x253 DUP5 ADD SWAP2 SWAP1 SWAP2 MSTORE PUSH10 0x119C311AB1B31B11179F PUSH1 0xB1 SHL PUSH2 0x273 DUP5 ADD MSTORE PUSH32 0x3C616E696D617465206174747269627574654E616D653D227831222076616C75 PUSH2 0x27D DUP5 ADD MSTORE PUSH32 0x65733D2230253B313030253B302522206475723D223373222072657065617443 PUSH2 0x29D DUP5 ADD MSTORE PUSH20 0x37BAB73A1E9134B73232B334B734BA329110179F PUSH1 0x61 SHL PUSH2 0x2BD DUP5 ADD MSTORE PUSH32 0x3C616E696D617465206174747269627574654E616D653D227832222076616C75 PUSH2 0x2D1 DUP5 ADD MSTORE PUSH32 0x65733D22313030253B30253B3130302522206475723D22337322207265706561 PUSH2 0x2F1 DUP5 ADD MSTORE PUSH22 0x3A21B7BAB73A1E9134B73232B334B734BA329110179F PUSH1 0x51 SHL PUSH2 0x311 DUP5 ADD MSTORE PUSH2 0x327 DUP4 ADD MSTORE PUSH7 0x1E17B232B3399F PUSH1 0xC9 SHL PUSH2 0x338 DUP4 ADD MSTORE PUSH32 0x3C726563742077696474683D2235303022206865696768743D22353030222066 PUSH2 0x33F DUP4 ADD MSTORE PUSH20 0x34B6361E913AB9361411B133A3B930B21491179F PUSH1 0x61 SHL PUSH2 0x35F DUP4 ADD MSTORE PUSH32 0x3C7265637420783D2231302220793D223130222077696474683D223438302220 PUSH2 0x373 DUP4 ADD MSTORE PUSH32 0x6865696768743D22343830222066696C6C3D226E6F6E6522207374726F6B653D PUSH2 0x393 DUP4 ADD MSTORE PUSH32 0x2275726C2823626F72646572477261642922207374726F6B652D77696474683D PUSH2 0x3B3 DUP4 ADD MSTORE PUSH13 0x111A1110393C1E91189A91179F PUSH1 0x99 SHL PUSH2 0x3D3 DUP4 ADD MSTORE PUSH32 0x3C7465787420783D223235302220793D2238302220666F6E742D66616D696C79 PUSH2 0x3E0 DUP4 ADD MSTORE PUSH32 0x3D2273616E732D73657269662220666F6E742D73697A653D2232342220666F6E PUSH2 0x400 DUP4 ADD MSTORE PUSH32 0x742D7765696768743D22626F6C64222066696C6C3D2277686974652220746578 PUSH2 0x420 DUP4 ADD MSTORE PUSH32 0x742D616E63686F723D226D6964646C65223E4D7973746963616C20466F727475 PUSH2 0x440 DUP4 ADD MSTORE PUSH4 0x6E652023 PUSH1 0xE0 SHL PUSH2 0x460 DUP4 ADD MSTORE DUP9 MLOAD SWAP2 SWAP11 DUP12 SWAP10 SWAP4 SWAP9 SWAP4 SWAP1 SWAP3 SWAP2 DUP3 SWAP2 ADD PUSH2 0x464 DUP12 ADD MCOPY PUSH7 0x1E17BA32BC3A1F PUSH1 0xC9 SHL PUSH2 0x464 SWAP2 DUP11 ADD SWAP2 DUP3 ADD MSTORE PUSH32 0x3C7465787420783D223235302220793D223134302220666F6E742D66616D696C PUSH2 0x46B DUP3 ADD MSTORE PUSH32 0x793D2273616E732D73657269662220666F6E742D73697A653D22343022206669 PUSH2 0x48B DUP3 ADD MSTORE PUSH4 0x36361E91 PUSH1 0xE1 SHL PUSH2 0x4AB DUP3 ADD MSTORE DUP2 MLOAD SWAP2 DUP3 SWAP1 PUSH1 0x20 ADD PUSH2 0x4AF DUP4 ADD MCOPY ADD PUSH2 0x464 ADD PUSH1 0x4B DUP2 ADD PUSH32 0x2220746578742D616E63686F723D226D6964646C65223E000000000000000000 SWAP1 MSTORE DUP2 MLOAD PUSH1 0x20 DUP2 SWAP4 ADD PUSH1 0x62 DUP4 ADD MCOPY ADD PUSH1 0x4B ADD PUSH1 0x17 DUP2 ADD PUSH7 0x1E17BA32BC3A1F PUSH1 0xC9 SHL SWAP1 MSTORE PUSH1 0x1E DUP2 ADD PUSH32 0x3C7265637420783D2234302220793D22313830222077696474683D2234323022 SWAP1 MSTORE PUSH1 0x3E DUP2 ADD PUSH32 0x206865696768743D22313230222066696C6C3D2223666666666666222066696C SWAP1 MSTORE PUSH1 0x5E DUP2 ADD PUSH32 0x6C2D6F7061636974793D22302E3035222072783D223130222F3E000000000000 SWAP1 MSTORE PUSH1 0x78 DUP2 ADD PUSH32 0x3C7465787420783D223235302220793D223233302220666F6E742D66616D696C SWAP1 MSTORE PUSH1 0x98 DUP2 ADD PUSH32 0x793D2273616E732D73657269662220666F6E742D73697A653D22313822206669 SWAP1 MSTORE PUSH1 0xB8 DUP2 ADD PUSH32 0x6C6C3D2277686974652220746578742D616E63686F723D226D6964646C65223E SWAP1 MSTORE DUP2 MLOAD PUSH1 0x20 DUP2 SWAP4 ADD PUSH1 0xD8 DUP4 ADD MCOPY ADD PUSH1 0x17 ADD PUSH1 0xC1 DUP2 ADD PUSH7 0x1E17BA32BC3A1F PUSH1 0xC9 SHL SWAP1 MSTORE PUSH1 0xC8 DUP2 ADD PUSH32 0x3C7465787420783D223235302220793D223236302220666F6E742D66616D696C SWAP1 MSTORE PUSH1 0xE8 DUP2 ADD PUSH32 0x793D2273616E732D73657269662220666F6E742D73697A653D22313822206669 SWAP1 MSTORE PUSH2 0x108 DUP2 ADD PUSH32 0x6C6C3D2277686974652220746578742D616E63686F723D226D6964646C65223E SWAP1 MSTORE DUP2 MLOAD PUSH1 0x20 DUP2 SWAP4 ADD PUSH2 0x128 DUP4 ADD MCOPY ADD PUSH1 0xC1 ADD SWAP1 PUSH1 0x67 DUP3 ADD PUSH7 0x1E17BA32BC3A1F PUSH1 0xC9 SHL SWAP1 MSTORE PUSH1 0x6E DUP3 ADD PUSH32 0x3C7465787420783D223235302220793D223430302220666F6E742D66616D696C SWAP1 MSTORE PUSH1 0x8E DUP3 ADD PUSH32 0x793D226D6F6E6F73706163652220666F6E742D73697A653D223134222066696C SWAP1 MSTORE PUSH1 0xAE DUP3 ADD PUSH32 0x6C3D22236138623264312220746578742D616E63686F723D226D6964646C6522 SWAP1 MSTORE PUSH1 0xCE DUP3 ADD PUSH9 0x1F2BB0B63632BA1D1 PUSH1 0xBD SHL SWAP1 MSTORE MLOAD DUP1 SWAP3 PUSH1 0xD7 DUP4 ADD MCOPY ADD PUSH1 0x67 ADD PUSH1 0x70 DUP2 ADD PUSH7 0x1E17BA32BC3A1F PUSH1 0xC9 SHL SWAP1 MSTORE PUSH1 0x77 DUP2 ADD PUSH32 0x3C7465787420783D223235302220793D223433302220666F6E742D66616D696C SWAP1 MSTORE PUSH1 0x97 DUP2 ADD PUSH32 0x793D2273616E732D73657269662220666F6E742D73697A653D22313422206669 SWAP1 MSTORE PUSH1 0xB7 DUP2 ADD PUSH32 0x6C6C3D22236138623264312220746578742D616E63686F723D226D6964646C65 SWAP1 MSTORE PUSH10 0x111F26B4B73A32B21D1 PUSH1 0xB5 SHL PUSH1 0xD7 DUP3 ADD MSTORE DUP2 MLOAD PUSH1 0x20 DUP2 SWAP4 ADD PUSH1 0xE1 DUP4 ADD MCOPY ADD PUSH1 0x70 ADD PUSH1 0x71 DUP2 ADD PUSH7 0x1E17BA32BC3A1F PUSH1 0xC9 SHL SWAP1 MSTORE PUSH1 0x78 DUP2 ADD PUSH6 0x1E17B9BB339F PUSH1 0xD1 SHL SWAP1 MSTORE SUB PUSH1 0x71 ADD PUSH1 0x12 NOT DUP2 ADD DUP4 MSTORE PUSH1 0xD ADD PUSH2 0xEE9 SWAP1 DUP4 PUSH2 0x1FA2 JUMP JUMPDEST PUSH2 0xEF2 SWAP1 PUSH2 0x25A3 JUMP JUMPDEST SWAP1 PUSH2 0xEFC SWAP1 PUSH2 0x28B3 JUMP JUMPDEST SWAP1 DUP3 MLOAD SWAP2 DUP3 SWAP2 PUSH1 0x20 DUP4 ADD PUSH32 0x7B226E616D65223A2022536F6D6E696120466F7274756E652023000000000000 SWAP1 MSTORE DUP1 MLOAD PUSH1 0x20 DUP2 SWAP3 ADD PUSH1 0x3A DUP6 ADD MCOPY PUSH32 0x222C20226465736372697074696F6E223A20224F6E2D636861696E206D797374 PUSH1 0x3A SWAP2 DUP5 ADD SWAP2 DUP3 ADD MSTORE PUSH32 0x6963616C20666F7274756E65204E465420666F7220536F6D6E69612E222C2022 PUSH1 0x5A DUP3 ADD MSTORE PUSH32 0x696D616765223A2022646174613A696D6167652F7376672B786D6C3B62617365 PUSH1 0x7A DUP3 ADD MSTORE PUSH3 0xD8D0B PUSH1 0xEA SHL PUSH1 0x9A DUP3 ADD MSTORE DUP2 MLOAD SWAP2 DUP3 SWAP1 PUSH1 0x20 ADD PUSH1 0x9D DUP4 ADD MCOPY ADD PUSH1 0x3A ADD PUSH2 0x227D PUSH1 0xF0 SHL PUSH1 0x63 DUP3 ADD MSTORE SUB PUSH1 0x63 ADD PUSH1 0x1D NOT DUP2 ADD DUP3 MSTORE PUSH1 0x2 ADD PUSH2 0xFEB SWAP1 DUP3 PUSH2 0x1FA2 JUMP JUMPDEST PUSH2 0xFF4 SWAP1 PUSH2 0x28B3 JUMP JUMPDEST SWAP1 DUP1 MLOAD DUP1 SWAP3 PUSH1 0x20 DUP3 ADD PUSH32 0x646174613A6170706C69636174696F6E2F6A736F6E3B6261736536342C000000 SWAP1 MSTORE DUP1 MLOAD PUSH1 0x20 DUP2 SWAP3 ADD PUSH1 0x3D DUP5 ADD MCOPY DUP2 ADD PUSH1 0x3D DUP2 ADD PUSH0 SWAP1 MSTORE SUB PUSH1 0x3D ADD PUSH1 0x1F NOT DUP2 ADD DUP4 MSTORE PUSH2 0x104A SWAP1 DUP4 PUSH2 0x1FA2 JUMP JUMPDEST MLOAD DUP1 SWAP2 PUSH1 0x20 DUP3 MSTORE PUSH1 0x20 DUP3 ADD PUSH2 0x105E SWAP2 PUSH2 0x1F36 JUMP JUMPDEST SUB SWAP1 RETURN JUMPDEST PUSH4 0x4E487B71 PUSH1 0xE0 SHL PUSH0 MSTORE PUSH1 0x32 PUSH1 0x4 MSTORE PUSH1 0x24 PUSH0 REVERT JUMPDEST PUSH4 0xE22E27EB PUSH1 0xE0 SHL PUSH0 MSTORE PUSH1 0x4 MSTORE PUSH1 0x14 PUSH1 0x24 MSTORE PUSH1 0x44 PUSH0 REVERT JUMPDEST SWAP1 PUSH1 0xF DUP2 AND PUSH1 0x10 DUP2 LT ISZERO PUSH2 0x1062 JUMPI PUSH16 0x181899199A1A9B1B9C1CB0B131B232B3 PUSH1 0x81 SHL SWAP1 BYTE PUSH2 0x10BB DUP4 DUP16 PUSH2 0x2742 JUMP JUMPDEST MSTORE8 PUSH1 0x4 SHR SWAP1 DUP1 ISZERO PUSH2 0x10CE JUMPI PUSH0 NOT ADD PUSH2 0x3A7 JUMP JUMPDEST PUSH4 0x4E487B71 PUSH1 0xE0 SHL PUSH0 MSTORE PUSH1 0x11 PUSH1 0x4 MSTORE PUSH1 0x24 PUSH0 REVERT JUMPDEST MLOAD PUSH1 0x3 DUP2 LT ISZERO PUSH2 0x1182 JUMPI PUSH1 0x1 SUB PUSH2 0x113C JUMPI PUSH1 0x40 DUP1 MLOAD PUSH2 0x1101 DUP3 DUP3 PUSH2 0x1FA2 JUMP JUMPDEST PUSH1 0x6 DUP2 MSTORE PUSH6 0xE29885E29885 PUSH1 0xD0 SHL PUSH1 0x20 DUP3 ADD MSTORE DUP2 MLOAD SWAP1 SWAP2 PUSH2 0x1122 SWAP1 DUP3 PUSH2 0x1FA2 JUMP JUMPDEST PUSH1 0x7 DUP2 MSTORE PUSH7 0x23663062343361 PUSH1 0xC8 SHL PUSH1 0x20 DUP3 ADD MSTORE SWAP4 PUSH2 0x327 JUMP JUMPDEST PUSH1 0x40 DUP1 MLOAD PUSH2 0x114A DUP3 DUP3 PUSH2 0x1FA2 JUMP JUMPDEST PUSH1 0x3 DUP2 MSTORE PUSH3 0xE29885 PUSH1 0xE8 SHL PUSH1 0x20 DUP3 ADD MSTORE DUP2 MLOAD SWAP1 SWAP2 PUSH2 0x1168 SWAP1 DUP3 PUSH2 0x1FA2 JUMP JUMPDEST PUSH1 0x7 DUP2 MSTORE PUSH7 0x11B33333333333 PUSH1 0xC9 SHL PUSH1 0x20 DUP3 ADD MSTORE SWAP4 PUSH2 0x327 JUMP JUMPDEST PUSH4 0x4E487B71 PUSH1 0xE0 SHL PUSH0 MSTORE PUSH1 0x21 PUSH1 0x4 MSTORE PUSH1 0x24 PUSH0 REVERT JUMPDEST PUSH1 0x40 MLOAD PUSH3 0x461BCD PUSH1 0xE5 SHL DUP2 MSTORE PUSH1 0x20 PUSH1 0x4 DUP3 ADD MSTORE PUSH1 0x1F PUSH1 0x24 DUP3 ADD MSTORE PUSH32 0x55524920717565727920666F72206E6F6E6578697374656E7420746F6B656E00 PUSH1 0x44 DUP3 ADD MSTORE PUSH1 0x64 SWAP1 REVERT JUMPDEST CALLVALUE PUSH2 0x145 JUMPI PUSH1 0x80 CALLDATASIZE PUSH1 0x3 NOT ADD SLT PUSH2 0x145 JUMPI PUSH2 0x11F4 PUSH2 0x1F5A JUMP JUMPDEST PUSH2 0x11FC PUSH2 0x1F70 JUMP JUMPDEST SWAP1 PUSH1 0x44 CALLDATALOAD PUSH1 0x64 CALLDATALOAD SWAP3 PUSH8 0xFFFFFFFFFFFFFFFF DUP5 GT PUSH2 0x145 JUMPI CALLDATASIZE PUSH1 0x23 DUP6 ADD SLT ISZERO PUSH2 0x145 JUMPI PUSH2 0x1235 PUSH2 0x1247 SWAP5 CALLDATASIZE SWAP1 PUSH1 0x24 DUP2 PUSH1 0x4 ADD CALLDATALOAD SWAP2 ADD PUSH2 0x1FE0 JUMP JUMPDEST SWAP3 PUSH2 0x1241 DUP4 DUP4 DUP4 PUSH2 0x2141 JUMP JUMPDEST CALLER PUSH2 0x246D JUMP JUMPDEST STOP JUMPDEST CALLVALUE PUSH2 0x145 JUMPI PUSH1 0x40 CALLDATASIZE PUSH1 0x3 NOT ADD SLT PUSH2 0x145 JUMPI PUSH2 0x1262 PUSH2 0x1F5A JUMP JUMPDEST PUSH1 0x24 CALLDATALOAD SWAP1 DUP2 ISZERO ISZERO DUP1 SWAP3 SUB PUSH2 0x145 JUMPI CALLER ISZERO PUSH2 0x12EA JUMPI PUSH1 0x1 PUSH1 0x1 PUSH1 0xA0 SHL SUB AND SWAP1 DUP2 ISZERO PUSH2 0x12D7 JUMPI CALLER PUSH0 MSTORE PUSH1 0x5 PUSH1 0x20 MSTORE PUSH1 0x40 PUSH0 KECCAK256 DUP3 PUSH0 MSTORE PUSH1 0x20 MSTORE PUSH1 0x40 PUSH0 KECCAK256 PUSH1 0xFF NOT DUP2 SLOAD AND PUSH1 0xFF DUP4 AND OR SWAP1 SSTORE PUSH1 0x40 MLOAD SWAP1 DUP2 MSTORE PUSH32 0x17307EAB39AB6107E8899845AD3D59BD9653F200F220920489CA2B5937696C31 PUSH1 0x20 CALLER SWAP3 LOG3 STOP JUMPDEST POP PUSH4 0xB611743 PUSH1 0xE3 SHL PUSH0 MSTORE PUSH1 0x4 MSTORE PUSH1 0x24 PUSH0 REVERT JUMPDEST PUSH4 0xA9FBF51F PUSH1 0xE0 SHL PUSH0 MSTORE PUSH0 PUSH1 0x4 MSTORE PUSH1 0x24 PUSH0 REVERT JUMPDEST CALLVALUE PUSH2 0x145 JUMPI PUSH0 CALLDATASIZE PUSH1 0x3 NOT ADD SLT PUSH2 0x145 JUMPI PUSH1 0x40 MLOAD PUSH0 PUSH1 0x1 SLOAD PUSH2 0x131D DUP2 PUSH2 0x2050 JUMP JUMPDEST DUP1 DUP5 MSTORE SWAP1 PUSH1 0x1 DUP2 AND SWAP1 DUP2 ISZERO PUSH2 0x13B7 JUMPI POP PUSH1 0x1 EQ PUSH2 0x1359 JUMPI JUMPDEST PUSH2 0x105E DUP4 PUSH2 0x1345 DUP2 DUP6 SUB DUP3 PUSH2 0x1FA2 JUMP JUMPDEST PUSH1 0x40 MLOAD SWAP2 DUP3 SWAP2 PUSH1 0x20 DUP4 MSTORE PUSH1 0x20 DUP4 ADD SWAP1 PUSH2 0x1F36 JUMP JUMPDEST PUSH1 0x1 PUSH0 SWAP1 DUP2 MSTORE PUSH32 0xB10E2D527612073B26EECDFD717E6A320CF44B4AFAC2B0732D9FCBE2B7FA0CF6 SWAP4 SWAP3 POP SWAP1 JUMPDEST DUP1 DUP3 LT PUSH2 0x139D JUMPI POP SWAP1 SWAP2 POP DUP2 ADD PUSH1 0x20 ADD PUSH2 0x1345 PUSH2 0x1335 JUMP JUMPDEST SWAP2 SWAP3 PUSH1 0x1 DUP2 PUSH1 0x20 SWAP3 SLOAD DUP4 DUP6 DUP9 ADD ADD MSTORE ADD SWAP2 ADD SWAP1 SWAP3 SWAP2 PUSH2 0x1385 JUMP JUMPDEST PUSH1 0xFF NOT AND PUSH1 0x20 DUP1 DUP7 ADD SWAP2 SWAP1 SWAP2 MSTORE SWAP2 ISZERO ISZERO PUSH1 0x5 SHL DUP5 ADD SWAP1 SWAP2 ADD SWAP2 POP PUSH2 0x1345 SWAP1 POP PUSH2 0x1335 JUMP JUMPDEST CALLVALUE PUSH2 0x145 JUMPI PUSH0 CALLDATASIZE PUSH1 0x3 NOT ADD SLT PUSH2 0x145 JUMPI PUSH1 0xA SLOAD PUSH1 0x40 MLOAD PUSH1 0x1 PUSH1 0x1 PUSH1 0xA0 SHL SUB SWAP1 SWAP2 AND DUP2 MSTORE PUSH1 0x20 SWAP1 RETURN JUMPDEST CALLVALUE PUSH2 0x145 JUMPI PUSH1 0x20 CALLDATASIZE PUSH1 0x3 NOT ADD SLT PUSH2 0x145 JUMPI PUSH1 0x4 CALLDATALOAD PUSH0 SWAP1 DUP2 MSTORE PUSH1 0xD PUSH1 0x20 MSTORE PUSH1 0x40 SWAP1 KECCAK256 DUP1 SLOAD PUSH1 0x1 PUSH1 0x1 PUSH1 0xA0 SHL SUB AND PUSH2 0x143B PUSH1 0x1 DUP4 ADD PUSH2 0x2088 JUMP JUMPDEST SWAP2 PUSH2 0x105E PUSH1 0x2 DUP3 ADD SLOAD SWAP2 PUSH1 0x3 DUP2 ADD SLOAD SWAP1 PUSH1 0xFF PUSH1 0x5 PUSH1 0x4 DUP4 ADD SLOAD SWAP3 ADD SLOAD AND SWAP2 PUSH2 0x1475 PUSH1 0x40 MLOAD SWAP8 DUP9 SWAP8 DUP9 MSTORE PUSH1 0xC0 PUSH1 0x20 DUP10 ADD MSTORE PUSH1 0xC0 DUP9 ADD SWAP1 PUSH2 0x1F36 JUMP JUMPDEST SWAP5 PUSH1 0x40 DUP8 ADD MSTORE PUSH1 0x60 DUP7 ADD MSTORE PUSH1 0x80 DUP6 ADD MSTORE PUSH1 0xA0 DUP5 ADD SWAP1 PUSH2 0x2128 JUMP JUMPDEST CALLVALUE PUSH2 0x145 JUMPI PUSH0 CALLDATASIZE PUSH1 0x3 NOT ADD SLT PUSH2 0x145 JUMPI PUSH2 0x14A7 PUSH2 0x2446 JUMP JUMPDEST PUSH1 0xA DUP1 SLOAD PUSH1 0x1 PUSH1 0x1 PUSH1 0xA0 SHL SUB NOT DUP2 AND SWAP1 SWAP2 SSTORE PUSH0 SWAP1 PUSH1 0x1 PUSH1 0x1 PUSH1 0xA0 SHL SUB AND PUSH32 0x8BE0079C531659141344CD1FD0A4F28419497F9722A3DAAFE3B4186F6B6457E0 DUP3 DUP1 LOG3 STOP JUMPDEST CALLVALUE PUSH2 0x145 JUMPI PUSH1 0x20 CALLDATASIZE PUSH1 0x3 NOT ADD SLT PUSH2 0x145 JUMPI PUSH1 0x20 PUSH2 0x150D PUSH2 0x1508 PUSH2 0x1F5A JUMP JUMPDEST PUSH2 0x23E1 JUMP JUMPDEST PUSH1 0x40 MLOAD SWAP1 DUP2 MSTORE RETURN JUMPDEST CALLVALUE PUSH2 0x145 JUMPI PUSH0 CALLDATASIZE PUSH1 0x3 NOT ADD SLT PUSH2 0x145 JUMPI PUSH1 0x20 PUSH1 0xC SLOAD PUSH1 0x40 MLOAD SWAP1 DUP2 MSTORE RETURN JUMPDEST CALLVALUE PUSH2 0x145 JUMPI PUSH1 0x20 CALLDATASIZE PUSH1 0x3 NOT ADD SLT PUSH2 0x145 JUMPI PUSH1 0x20 PUSH2 0x1550 PUSH1 0x4 CALLDATALOAD PUSH2 0x2412 JUMP JUMPDEST PUSH1 0x40 MLOAD PUSH1 0x1 PUSH1 0x1 PUSH1 0xA0 SHL SUB SWAP1 SWAP2 AND DUP2 MSTORE RETURN JUMPDEST CALLVALUE PUSH2 0x145 JUMPI PUSH1 0x20 CALLDATASIZE PUSH1 0x3 NOT ADD SLT PUSH2 0x145 JUMPI PUSH1 0x4 CALLDATALOAD PUSH1 0x8 SLOAD DUP2 LT ISZERO PUSH2 0x159A JUMPI PUSH2 0x158B PUSH1 0x20 SWAP2 PUSH2 0x23C9 JUMP JUMPDEST SWAP1 SLOAD SWAP1 PUSH1 0x3 SHL SHR PUSH1 0x40 MLOAD SWAP1 DUP2 MSTORE RETURN JUMPDEST PUSH4 0x295F44F7 PUSH1 0xE2 SHL PUSH0 MSTORE PUSH0 PUSH1 0x4 MSTORE PUSH1 0x24 MSTORE PUSH1 0x44 PUSH0 REVERT JUMPDEST CALLVALUE PUSH2 0x145 JUMPI PUSH2 0x1247 PUSH2 0x15C1 CALLDATASIZE PUSH2 0x2016 JUMP JUMPDEST SWAP1 PUSH1 0x40 MLOAD SWAP3 PUSH2 0x15D1 PUSH1 0x20 DUP6 PUSH2 0x1FA2 JUMP JUMPDEST PUSH0 DUP5 MSTORE PUSH2 0x1241 DUP4 DUP4 DUP4 PUSH2 0x2141 JUMP JUMPDEST CALLVALUE PUSH2 0x145 JUMPI PUSH0 CALLDATASIZE PUSH1 0x3 NOT ADD SLT PUSH2 0x145 JUMPI PUSH2 0x15F7 PUSH2 0x2446 JUMP JUMPDEST PUSH0 DUP1 DUP1 DUP1 SELFBALANCE PUSH1 0x1 DUP1 PUSH1 0xA0 SHL SUB PUSH1 0xA SLOAD AND DUP3 DUP3 ISZERO PUSH2 0x1622 JUMPI JUMPDEST CALL ISZERO PUSH2 0x1617 JUMPI STOP JUMPDEST PUSH1 0x40 MLOAD RETURNDATASIZE PUSH0 DUP3 RETURNDATACOPY RETURNDATASIZE SWAP1 REVERT JUMPDEST POP PUSH2 0x8FC PUSH2 0x160F JUMP JUMPDEST CALLVALUE PUSH2 0x145 JUMPI PUSH1 0x40 CALLDATASIZE PUSH1 0x3 NOT ADD SLT PUSH2 0x145 JUMPI PUSH2 0x1644 PUSH2 0x1F5A JUMP JUMPDEST PUSH1 0x24 CALLDATALOAD SWAP1 PUSH2 0x1651 DUP2 PUSH2 0x23E1 JUMP JUMPDEST DUP3 LT ISZERO PUSH2 0x1680 JUMPI PUSH1 0x1 DUP1 PUSH1 0xA0 SHL SUB AND PUSH0 MSTORE PUSH1 0x6 PUSH1 0x20 MSTORE PUSH1 0x40 PUSH0 KECCAK256 SWAP1 PUSH0 MSTORE PUSH1 0x20 MSTORE PUSH1 0x20 PUSH1 0x40 PUSH0 KECCAK256 SLOAD PUSH1 0x40 MLOAD SWAP1 DUP2 MSTORE RETURN JUMPDEST PUSH4 0x295F44F7 PUSH1 0xE2 SHL PUSH0 MSTORE PUSH1 0x1 DUP1 PUSH1 0xA0 SHL SUB AND PUSH1 0x4 MSTORE PUSH1 0x24 MSTORE PUSH1 0x44 PUSH0 REVERT JUMPDEST CALLVALUE PUSH2 0x145 JUMPI PUSH2 0x1247 PUSH2 0x16AE CALLDATASIZE PUSH2 0x2016 JUMP JUMPDEST SWAP2 PUSH2 0x2141 JUMP JUMPDEST CALLVALUE PUSH2 0x145 JUMPI PUSH0 CALLDATASIZE PUSH1 0x3 NOT ADD SLT PUSH2 0x145 JUMPI PUSH1 0x20 PUSH1 0x8 SLOAD PUSH1 0x40 MLOAD SWAP1 DUP2 MSTORE RETURN JUMPDEST PUSH1 0x60 CALLDATASIZE PUSH1 0x3 NOT ADD SLT PUSH2 0x145 JUMPI PUSH1 0x4 CALLDATALOAD PUSH8 0xFFFFFFFFFFFFFFFF DUP2 GT PUSH2 0x145 JUMPI CALLDATASIZE PUSH1 0x23 DUP3 ADD SLT ISZERO PUSH2 0x145 JUMPI PUSH2 0x170E SWAP1 CALLDATASIZE SWAP1 PUSH1 0x24 DUP2 PUSH1 0x4 ADD CALLDATALOAD SWAP2 ADD PUSH2 0x1FE0 JUMP JUMPDEST PUSH1 0x24 CALLDATALOAD SWAP1 PUSH1 0x44 CALLDATALOAD SWAP2 PUSH1 0xC SLOAD CALLVALUE LT PUSH2 0x1CA4 JUMPI PUSH2 0x1F4 DUP2 GT DUP1 PUSH2 0x1C93 JUMPI JUMPDEST ISZERO PUSH2 0x1C7D JUMPI PUSH1 0x2 JUMPDEST PUSH1 0xB SLOAD SWAP2 PUSH1 0x1 DUP4 ADD DUP1 SWAP4 GT PUSH2 0x10CE JUMPI DUP3 PUSH1 0xB SSTORE PUSH1 0x40 MLOAD PUSH2 0x1751 DUP2 PUSH2 0x1F86 JUMP JUMPDEST CALLER DUP2 MSTORE PUSH1 0x20 DUP2 ADD SWAP6 DUP6 DUP8 MSTORE PUSH1 0x40 DUP3 ADD SWAP3 DUP4 MSTORE PUSH1 0x60 DUP3 ADD SWAP1 DUP2 MSTORE PUSH1 0x80 DUP3 ADD SWAP1 TIMESTAMP DUP3 MSTORE PUSH1 0xA0 DUP4 ADD SWAP4 PUSH2 0x1781 DUP7 DUP7 PUSH2 0x2135 JUMP JUMPDEST PUSH0 DUP8 DUP2 MSTORE PUSH1 0xD PUSH1 0x20 MSTORE PUSH1 0x40 SWAP1 KECCAK256 SWAP4 MLOAD DUP5 SLOAD PUSH1 0x1 PUSH1 0x1 PUSH1 0xA0 SHL SUB NOT AND PUSH1 0x1 PUSH1 0x1 PUSH1 0xA0 SHL SUB SWAP2 SWAP1 SWAP2 AND OR DUP5 SSTORE SWAP8 MLOAD DUP1 MLOAD SWAP1 SWAP9 SWAP1 PUSH1 0x1 DUP6 ADD SWAP1 PUSH8 0xFFFFFFFFFFFFFFFF DUP2 GT PUSH2 0x1AF7 JUMPI PUSH2 0x17D0 DUP3 SLOAD PUSH2 0x2050 JUMP JUMPDEST PUSH1 0x1F DUP2 GT PUSH2 0x1C38 JUMPI JUMPDEST POP PUSH1 0x20 PUSH1 0x1F DUP3 GT PUSH1 0x1 EQ PUSH2 0x1BD0 JUMPI DUP2 SWAP1 PUSH1 0x5 SWAP9 SWAP10 SWAP11 SWAP12 SWAP13 PUSH0 SWAP3 PUSH2 0x1BC5 JUMPI JUMPDEST POP POP DUP2 PUSH1 0x1 SHL SWAP2 PUSH0 NOT SWAP1 PUSH1 0x3 SHL SHR NOT AND OR SWAP1 SSTORE JUMPDEST MLOAD PUSH1 0x2 DUP5 ADD SSTORE MLOAD PUSH1 0x3 DUP4 ADD SSTORE MLOAD PUSH1 0x4 DUP3 ADD SSTORE ADD SWAP1 MLOAD PUSH1 0x3 DUP2 LT ISZERO PUSH2 0x1182 JUMPI PUSH1 0xFF DUP1 NOT DUP4 SLOAD AND SWAP2 AND OR SWAP1 SSTORE PUSH1 0x20 SWAP3 PUSH1 0x40 MLOAD PUSH2 0x1845 DUP6 DUP3 PUSH2 0x1FA2 JUMP JUMPDEST PUSH0 DUP2 MSTORE CALLER ISZERO PUSH2 0x1BB2 JUMPI PUSH0 DUP5 DUP2 MSTORE PUSH1 0x2 DUP7 MSTORE PUSH1 0x40 SWAP1 KECCAK256 SLOAD PUSH1 0x1 PUSH1 0x1 PUSH1 0xA0 SHL SUB AND DUP1 ISZERO DUP1 ISZERO SWAP2 SWAP1 DUP3 PUSH2 0x1B81 JUMPI JUMPDEST CALLER PUSH0 DUP2 DUP2 MSTORE PUSH1 0x3 DUP11 MSTORE PUSH1 0x40 DUP1 DUP3 KECCAK256 DUP1 SLOAD PUSH1 0x1 ADD SWAP1 SSTORE DUP10 DUP3 MSTORE PUSH1 0x2 DUP12 MSTORE DUP2 KECCAK256 DUP1 SLOAD PUSH1 0x1 PUSH1 0x1 PUSH1 0xA0 SHL SUB NOT AND DUP4 OR SWAP1 SSTORE DUP9 SWAP2 SWAP1 DUP5 SWAP1 PUSH32 0xDDF252AD1BE2C89B69C2B068FC378DAA952BA7F163C4A11628F55A4DF523B3EF SWAP1 DUP1 LOG4 ISZERO PUSH2 0x1B0B JUMPI PUSH1 0x8 SLOAD DUP7 PUSH0 MSTORE PUSH1 0x9 DUP9 MSTORE DUP1 PUSH1 0x40 PUSH0 KECCAK256 SSTORE PUSH1 0x1 PUSH1 0x40 SHL DUP2 LT ISZERO PUSH2 0x1AF7 JUMPI DUP7 PUSH2 0x18FC DUP3 PUSH1 0x1 PUSH2 0x1914 SWAP5 ADD PUSH1 0x8 SSTORE PUSH2 0x23C9 JUMP JUMPDEST SWAP1 SWAP2 SWAP1 DUP3 SLOAD SWAP1 PUSH1 0x3 SHL SWAP2 DUP3 SHL SWAP2 PUSH0 NOT SWAP1 SHL NOT AND OR SWAP1 SSTORE JUMP JUMPDEST CALLER DUP2 SUB PUSH2 0x1ABC JUMPI JUMPDEST POP PUSH2 0x1AA9 JUMPI DUP5 SWAP1 CALLER EXTCODESIZE PUSH2 0x197D JUMPI JUMPDEST POP POP PUSH2 0x196F PUSH32 0xE9B768CA27B477E24EF7C94BD6177CBF41AE119D779CBC3F0F58896D5D467F51 SWAP3 PUSH2 0x1966 PUSH1 0x40 MLOAD SWAP4 PUSH1 0x60 DUP6 MSTORE PUSH1 0x60 DUP6 ADD SWAP1 PUSH2 0x1F36 JUMP JUMPDEST SWAP6 DUP4 ADD SWAP1 PUSH2 0x2128 JUMP JUMPDEST TIMESTAMP PUSH1 0x40 DUP3 ADD MSTORE DUP1 CALLER SWAP5 SUB SWAP1 LOG3 STOP JUMPDEST SWAP1 PUSH2 0x19B6 SWAP2 PUSH1 0x40 MLOAD DUP1 SWAP4 DUP2 SWAP3 PUSH4 0xA85BD01 PUSH1 0xE1 SHL DUP4 MSTORE CALLER PUSH1 0x4 DUP5 ADD MSTORE PUSH0 PUSH1 0x24 DUP5 ADD MSTORE DUP9 PUSH1 0x44 DUP5 ADD MSTORE PUSH1 0x80 PUSH1 0x64 DUP5 ADD MSTORE PUSH1 0x84 DUP4 ADD SWAP1 PUSH2 0x1F36 JUMP JUMPDEST SUB DUP2 PUSH0 CALLER GAS CALL PUSH0 SWAP2 DUP2 PUSH2 0x1A69 JUMPI JUMPDEST POP PUSH2 0x1A18 JUMPI DUP5 RETURNDATASIZE ISZERO PUSH2 0x1A10 JUMPI RETURNDATASIZE SWAP1 PUSH2 0x19DB DUP3 PUSH2 0x1FC4 JUMP JUMPDEST SWAP2 PUSH2 0x19E9 PUSH1 0x40 MLOAD SWAP4 DUP5 PUSH2 0x1FA2 JUMP JUMPDEST DUP3 MSTORE RETURNDATASIZE PUSH0 DUP3 DUP5 ADD RETURNDATACOPY JUMPDEST DUP2 MLOAD SWAP2 DUP3 PUSH2 0x1A0D JUMPI PUSH4 0x32505749 PUSH1 0xE1 SHL PUSH0 MSTORE CALLER PUSH1 0x4 MSTORE PUSH1 0x24 PUSH0 REVERT JUMPDEST ADD REVERT JUMPDEST PUSH1 0x60 SWAP1 PUSH2 0x19F2 JUMP JUMPDEST PUSH1 0x1 PUSH1 0x1 PUSH1 0xE0 SHL SUB NOT AND PUSH4 0x757A42FF PUSH1 0xE1 SHL ADD PUSH2 0x1A56 JUMPI DUP4 PUSH32 0xE9B768CA27B477E24EF7C94BD6177CBF41AE119D779CBC3F0F58896D5D467F51 PUSH2 0x192A JUMP JUMPDEST PUSH4 0x32505749 PUSH1 0xE1 SHL PUSH0 MSTORE CALLER PUSH1 0x4 MSTORE PUSH1 0x24 PUSH0 REVERT JUMPDEST SWAP1 SWAP2 POP DUP6 DUP2 DUP2 RETURNDATASIZE DUP4 GT PUSH2 0x1AA2 JUMPI JUMPDEST PUSH2 0x1A81 DUP2 DUP4 PUSH2 0x1FA2 JUMP JUMPDEST DUP2 ADD SUB SLT PUSH2 0x145 JUMPI MLOAD PUSH1 0x1 PUSH1 0x1 PUSH1 0xE0 SHL SUB NOT DUP2 AND DUP2 SUB PUSH2 0x145 JUMPI SWAP1 DUP7 PUSH2 0x19C4 JUMP JUMPDEST POP RETURNDATASIZE PUSH2 0x1A77 JUMP JUMPDEST PUSH4 0x39E35637 PUSH1 0xE1 SHL PUSH0 MSTORE PUSH0 PUSH1 0x4 MSTORE PUSH1 0x24 PUSH0 REVERT JUMPDEST PUSH2 0x1AC5 CALLER PUSH2 0x23E1 JUMP JUMPDEST PUSH0 NOT DUP2 ADD SWAP1 DUP2 GT PUSH2 0x10CE JUMPI CALLER PUSH0 MSTORE PUSH1 0x6 DUP9 MSTORE PUSH1 0x40 PUSH0 KECCAK256 DUP2 PUSH0 MSTORE DUP9 MSTORE DUP7 PUSH1 0x40 PUSH0 KECCAK256 SSTORE DUP7 PUSH0 MSTORE PUSH1 0x7 DUP9 MSTORE PUSH1 0x40 PUSH0 KECCAK256 SSTORE PUSH2 0x191C JUMP JUMPDEST PUSH4 0x4E487B71 PUSH1 0xE0 SHL PUSH0 MSTORE PUSH1 0x41 PUSH1 0x4 MSTORE PUSH1 0x24 PUSH0 REVERT JUMPDEST CALLER DUP2 EQ PUSH2 0x1914 JUMPI PUSH2 0x1B1B DUP2 PUSH2 0x23E1 JUMP JUMPDEST DUP7 PUSH0 MSTORE PUSH1 0x7 DUP9 MSTORE PUSH1 0x40 PUSH0 KECCAK256 SLOAD SWAP1 DUP3 PUSH0 MSTORE PUSH1 0x6 DUP10 MSTORE PUSH1 0x40 PUSH0 KECCAK256 SWAP2 DUP2 DUP2 SUB PUSH2 0x1B59 JUMPI JUMPDEST POP DUP8 PUSH0 MSTORE PUSH1 0x7 DUP10 MSTORE PUSH0 PUSH1 0x40 DUP2 KECCAK256 SSTORE PUSH0 MSTORE DUP8 MSTORE PUSH0 PUSH1 0x40 DUP2 KECCAK256 SSTORE PUSH2 0x1914 JUMP JUMPDEST DUP2 PUSH0 MSTORE DUP3 DUP11 MSTORE PUSH1 0x40 PUSH0 KECCAK256 SLOAD DUP2 PUSH0 MSTORE DUP4 DUP12 MSTORE DUP1 PUSH1 0x40 PUSH0 KECCAK256 SSTORE PUSH0 MSTORE PUSH1 0x7 DUP11 MSTORE PUSH1 0x40 PUSH0 KECCAK256 SSTORE DUP10 PUSH2 0x1B3C JUMP JUMPDEST PUSH0 DUP8 DUP2 MSTORE PUSH1 0x4 PUSH1 0x20 MSTORE PUSH1 0x40 DUP1 DUP3 KECCAK256 DUP1 SLOAD PUSH1 0x1 PUSH1 0x1 PUSH1 0xA0 SHL SUB NOT AND SWAP1 SSTORE DUP4 DUP3 MSTORE PUSH1 0x3 DUP11 MSTORE SWAP1 KECCAK256 DUP1 SLOAD PUSH0 NOT ADD SWAP1 SSTORE PUSH2 0x1870 JUMP JUMPDEST PUSH4 0x32505749 PUSH1 0xE1 SHL PUSH0 MSTORE PUSH0 PUSH1 0x4 MSTORE PUSH1 0x24 PUSH0 REVERT JUMPDEST ADD MLOAD SWAP1 POP DUP13 DUP1 PUSH2 0x17F7 JUMP JUMPDEST PUSH1 0x1F NOT DUP3 AND SWAP12 DUP4 PUSH0 MSTORE DUP2 PUSH0 KECCAK256 SWAP13 PUSH0 JUMPDEST DUP2 DUP2 LT PUSH2 0x1C20 JUMPI POP SWAP2 PUSH1 0x5 SWAP10 SWAP11 SWAP12 SWAP13 SWAP14 SWAP2 DUP5 PUSH1 0x1 SWAP6 SWAP5 LT PUSH2 0x1C08 JUMPI JUMPDEST POP POP POP DUP2 SHL ADD SWAP1 SSTORE PUSH2 0x180B JUMP JUMPDEST ADD MLOAD PUSH0 NOT PUSH1 0xF8 DUP5 PUSH1 0x3 SHL AND SHR NOT AND SWAP1 SSTORE DUP13 DUP1 DUP1 PUSH2 0x1BFB JUMP JUMPDEST DUP4 DUP4 ADD MLOAD DUP16 SSTORE PUSH1 0x1 SWAP1 SWAP15 ADD SWAP14 PUSH1 0x20 SWAP4 DUP5 ADD SWAP4 ADD PUSH2 0x1BDF JUMP JUMPDEST DUP3 PUSH0 MSTORE PUSH1 0x20 PUSH0 KECCAK256 PUSH1 0x1F DUP4 ADD PUSH1 0x5 SHR DUP2 ADD SWAP2 PUSH1 0x20 DUP5 LT PUSH2 0x1C73 JUMPI JUMPDEST PUSH1 0x1F ADD PUSH1 0x5 SHR ADD SWAP1 JUMPDEST DUP2 DUP2 LT PUSH2 0x1C68 JUMPI POP PUSH2 0x17D9 JUMP JUMPDEST PUSH0 DUP2 SSTORE PUSH1 0x1 ADD PUSH2 0x1C5B JUMP JUMPDEST SWAP1 SWAP2 POP DUP2 SWAP1 PUSH2 0x1C52 JUMP JUMPDEST PUSH1 0x64 DUP2 GT ISZERO PUSH2 0x1C8D JUMPI PUSH1 0x1 PUSH2 0x1732 JUMP JUMPDEST PUSH0 PUSH2 0x1732 JUMP JUMPDEST POP PUSH8 0x8AC7230489E80000 DUP4 GT PUSH2 0x172A JUMP JUMPDEST PUSH1 0x40 MLOAD PUSH3 0x461BCD PUSH1 0xE5 SHL DUP2 MSTORE PUSH1 0x20 PUSH1 0x4 DUP3 ADD MSTORE PUSH1 0x1A PUSH1 0x24 DUP3 ADD MSTORE PUSH32 0x496E73756666696369656E742066756E647320746F206D696E74000000000000 PUSH1 0x44 DUP3 ADD MSTORE PUSH1 0x64 SWAP1 REVERT JUMPDEST CALLVALUE PUSH2 0x145 JUMPI PUSH1 0x40 CALLDATASIZE PUSH1 0x3 NOT ADD SLT PUSH2 0x145 JUMPI PUSH2 0x1D02 PUSH2 0x1F5A JUMP JUMPDEST PUSH1 0x24 CALLDATALOAD PUSH2 0x1D0E DUP2 PUSH2 0x2412 JUMP JUMPDEST CALLER ISZERO ISZERO DUP1 PUSH2 0x1DC0 JUMPI JUMPDEST DUP1 PUSH2 0x1D93 JUMPI JUMPDEST PUSH2 0x1D80 JUMPI DUP2 SWAP1 PUSH1 0x1 PUSH1 0x1 PUSH1 0xA0 SHL SUB DUP5 DUP2 AND SWAP2 AND PUSH32 0x8C5BE1E5EBEC7D5BD14F71427D1E84F3DD0314C0F7B2291E5B200AC8C7C3B925 PUSH0 DUP1 LOG4 PUSH0 SWAP1 DUP2 MSTORE PUSH1 0x4 PUSH1 0x20 MSTORE PUSH1 0x40 SWAP1 KECCAK256 DUP1 SLOAD PUSH1 0x1 PUSH1 0x1 PUSH1 0xA0 SHL SUB NOT AND PUSH1 0x1 PUSH1 0x1 PUSH1 0xA0 SHL SUB SWAP1 SWAP3 AND SWAP2 SWAP1 SWAP2 OR SWAP1 SSTORE STOP JUMPDEST PUSH4 0xA9FBF51F PUSH1 0xE0 SHL PUSH0 MSTORE CALLER PUSH1 0x4 MSTORE PUSH1 0x24 PUSH0 REVERT JUMPDEST POP PUSH1 0x1 PUSH1 0x1 PUSH1 0xA0 SHL SUB DUP2 AND PUSH0 SWAP1 DUP2 MSTORE PUSH1 0x5 PUSH1 0x20 SWAP1 DUP2 MSTORE PUSH1 0x40 DUP1 DUP4 KECCAK256 CALLER DUP5 MSTORE SWAP1 SWAP2 MSTORE SWAP1 KECCAK256 SLOAD PUSH1 0xFF AND ISZERO PUSH2 0x1D1D JUMP JUMPDEST POP PUSH1 0x1 PUSH1 0x1 PUSH1 0xA0 SHL SUB DUP2 AND CALLER EQ ISZERO PUSH2 0x1D17 JUMP JUMPDEST CALLVALUE PUSH2 0x145 JUMPI PUSH1 0x20 CALLDATASIZE PUSH1 0x3 NOT ADD SLT PUSH2 0x145 JUMPI PUSH1 0x4 CALLDATALOAD PUSH2 0x1DF0 DUP2 PUSH2 0x2412 JUMP JUMPDEST POP PUSH0 MSTORE PUSH1 0x4 PUSH1 0x20 MSTORE PUSH1 0x20 PUSH1 0x1 DUP1 PUSH1 0xA0 SHL SUB PUSH1 0x40 PUSH0 KECCAK256 SLOAD AND PUSH1 0x40 MLOAD SWAP1 DUP2 MSTORE RETURN JUMPDEST CALLVALUE PUSH2 0x145 JUMPI PUSH0 CALLDATASIZE PUSH1 0x3 NOT ADD SLT PUSH2 0x145 JUMPI PUSH1 0x40 MLOAD PUSH0 PUSH0 SLOAD PUSH2 0x1E2E DUP2 PUSH2 0x2050 JUMP JUMPDEST DUP1 DUP5 MSTORE SWAP1 PUSH1 0x1 DUP2 AND SWAP1 DUP2 ISZERO PUSH2 0x13B7 JUMPI POP PUSH1 0x1 EQ PUSH2 0x1E55 JUMPI PUSH2 0x105E DUP4 PUSH2 0x1345 DUP2 DUP6 SUB DUP3 PUSH2 0x1FA2 JUMP JUMPDEST PUSH0 DUP1 DUP1 MSTORE PUSH32 0x290DECD9548B62A8D60345A988386FC84BA6BC95484008F6362F93160EF3E563 SWAP4 SWAP3 POP SWAP1 JUMPDEST DUP1 DUP3 LT PUSH2 0x1E97 JUMPI POP SWAP1 SWAP2 POP DUP2 ADD PUSH1 0x20 ADD PUSH2 0x1345 PUSH2 0x1335 JUMP JUMPDEST SWAP2 SWAP3 PUSH1 0x1 DUP2 PUSH1 0x20 SWAP3 SLOAD DUP4 DUP6 DUP9 ADD ADD MSTORE ADD SWAP2 ADD SWAP1 SWAP3 SWAP2 PUSH2 0x1E7F JUMP JUMPDEST CALLVALUE PUSH2 0x145 JUMPI PUSH1 0x20 CALLDATASIZE PUSH1 0x3 NOT ADD SLT PUSH2 0x145 JUMPI PUSH1 0x4 CALLDATALOAD SWAP1 PUSH4 0xFFFFFFFF PUSH1 0xE0 SHL DUP3 AND DUP1 SWAP3 SUB PUSH2 0x145 JUMPI PUSH1 0x20 SWAP2 PUSH4 0x780E9D63 PUSH1 0xE0 SHL DUP2 EQ SWAP1 DUP2 ISZERO PUSH2 0x1EF3 JUMPI JUMPDEST POP ISZERO ISZERO DUP2 MSTORE RETURN JUMPDEST PUSH4 0x80AC58CD PUSH1 0xE0 SHL DUP2 EQ SWAP2 POP DUP2 ISZERO PUSH2 0x1F25 JUMPI JUMPDEST DUP2 ISZERO PUSH2 0x1F14 JUMPI JUMPDEST POP DUP4 PUSH2 0x1EEC JUMP JUMPDEST PUSH4 0x1FFC9A7 PUSH1 0xE0 SHL EQ SWAP1 POP DUP4 PUSH2 0x1F0D JUMP JUMPDEST PUSH4 0x5B5E139F PUSH1 0xE0 SHL DUP2 EQ SWAP2 POP PUSH2 0x1F06 JUMP JUMPDEST DUP1 MLOAD DUP1 DUP4 MSTORE PUSH1 0x20 SWAP3 SWAP2 DUP2 SWAP1 DUP5 ADD DUP5 DUP5 ADD MCOPY PUSH0 DUP3 DUP3 ADD DUP5 ADD MSTORE PUSH1 0x1F ADD PUSH1 0x1F NOT AND ADD ADD SWAP1 JUMP JUMPDEST PUSH1 0x4 CALLDATALOAD SWAP1 PUSH1 0x1 PUSH1 0x1 PUSH1 0xA0 SHL SUB DUP3 AND DUP3 SUB PUSH2 0x145 JUMPI JUMP JUMPDEST PUSH1 0x24 CALLDATALOAD SWAP1 PUSH1 0x1 PUSH1 0x1 PUSH1 0xA0 SHL SUB DUP3 AND DUP3 SUB PUSH2 0x145 JUMPI JUMP JUMPDEST PUSH1 0xC0 DUP2 ADD SWAP1 DUP2 LT PUSH8 0xFFFFFFFFFFFFFFFF DUP3 GT OR PUSH2 0x1AF7 JUMPI PUSH1 0x40 MSTORE JUMP JUMPDEST SWAP1 PUSH1 0x1F DUP1 NOT SWAP2 ADD AND DUP2 ADD SWAP1 DUP2 LT PUSH8 0xFFFFFFFFFFFFFFFF DUP3 GT OR PUSH2 0x1AF7 JUMPI PUSH1 0x40 MSTORE JUMP JUMPDEST PUSH8 0xFFFFFFFFFFFFFFFF DUP2 GT PUSH2 0x1AF7 JUMPI PUSH1 0x1F ADD PUSH1 0x1F NOT AND PUSH1 0x20 ADD SWAP1 JUMP JUMPDEST SWAP3 SWAP2 SWAP3 PUSH2 0x1FEC DUP3 PUSH2 0x1FC4 JUMP JUMPDEST SWAP2 PUSH2 0x1FFA PUSH1 0x40 MLOAD SWAP4 DUP5 PUSH2 0x1FA2 JUMP JUMPDEST DUP3 SWAP5 DUP2 DUP5 MSTORE DUP2 DUP4 ADD GT PUSH2 0x145 JUMPI DUP3 DUP2 PUSH1 0x20 SWAP4 DUP5 PUSH0 SWAP7 ADD CALLDATACOPY ADD ADD MSTORE JUMP JUMPDEST PUSH1 0x60 SWAP1 PUSH1 0x3 NOT ADD SLT PUSH2 0x145 JUMPI PUSH1 0x4 CALLDATALOAD PUSH1 0x1 PUSH1 0x1 PUSH1 0xA0 SHL SUB DUP2 AND DUP2 SUB PUSH2 0x145 JUMPI SWAP1 PUSH1 0x24 CALLDATALOAD PUSH1 0x1 PUSH1 0x1 PUSH1 0xA0 SHL SUB DUP2 AND DUP2 SUB PUSH2 0x145 JUMPI SWAP1 PUSH1 0x44 CALLDATALOAD SWAP1 JUMP JUMPDEST SWAP1 PUSH1 0x1 DUP3 DUP2 SHR SWAP3 AND DUP1 ISZERO PUSH2 0x207E JUMPI JUMPDEST PUSH1 0x20 DUP4 LT EQ PUSH2 0x206A JUMPI JUMP JUMPDEST PUSH4 0x4E487B71 PUSH1 0xE0 SHL PUSH0 MSTORE PUSH1 0x22 PUSH1 0x4 MSTORE PUSH1 0x24 PUSH0 REVERT JUMPDEST SWAP2 PUSH1 0x7F AND SWAP2 PUSH2 0x205F JUMP JUMPDEST SWAP1 PUSH1 0x40 MLOAD SWAP2 DUP3 PUSH0 DUP3 SLOAD SWAP3 PUSH2 0x209B DUP5 PUSH2 0x2050 JUMP JUMPDEST DUP1 DUP5 MSTORE SWAP4 PUSH1 0x1 DUP2 AND SWAP1 DUP2 ISZERO PUSH2 0x2106 JUMPI POP PUSH1 0x1 EQ PUSH2 0x20C2 JUMPI JUMPDEST POP PUSH2 0x20C0 SWAP3 POP SUB DUP4 PUSH2 0x1FA2 JUMP JUMPDEST JUMP JUMPDEST SWAP1 POP PUSH0 SWAP3 SWAP2 SWAP3 MSTORE PUSH1 0x20 PUSH0 KECCAK256 SWAP1 PUSH0 SWAP2 JUMPDEST DUP2 DUP4 LT PUSH2 0x20EA JUMPI POP POP SWAP1 PUSH1 0x20 PUSH2 0x20C0 SWAP3 DUP3 ADD ADD PUSH0 PUSH2 0x20B3 JUMP JUMPDEST PUSH1 0x20 SWAP2 SWAP4 POP DUP1 PUSH1 0x1 SWAP2 SLOAD DUP4 DUP6 DUP10 ADD ADD MSTORE ADD SWAP2 ADD SWAP1 SWAP2 DUP5 SWAP3 PUSH2 0x20D1 JUMP JUMPDEST SWAP1 POP PUSH1 0x20 SWAP3 POP PUSH2 0x20C0 SWAP5 SWAP2 POP PUSH1 0xFF NOT AND DUP3 DUP5 ADD MSTORE ISZERO ISZERO PUSH1 0x5 SHL DUP3 ADD ADD PUSH0 PUSH2 0x20B3 JUMP JUMPDEST SWAP1 PUSH1 0x3 DUP3 LT ISZERO PUSH2 0x1182 JUMPI MSTORE JUMP JUMPDEST PUSH1 0x3 DUP3 LT ISZERO PUSH2 0x1182 JUMPI MSTORE JUMP JUMPDEST SWAP1 SWAP2 SWAP1 PUSH1 0x1 PUSH1 0x1 PUSH1 0xA0 SHL SUB DUP4 AND DUP1 ISZERO PUSH2 0x1BB2 JUMPI PUSH0 DUP4 DUP2 MSTORE PUSH1 0x2 PUSH1 0x20 MSTORE PUSH1 0x40 SWAP1 KECCAK256 SLOAD PUSH1 0x1 PUSH1 0x1 PUSH1 0xA0 SHL SUB AND SWAP4 CALLER ISZERO ISZERO DUP1 PUSH2 0x2339 JUMPI JUMPDEST POP DUP5 ISZERO DUP1 ISZERO PUSH2 0x2306 JUMPI JUMPDEST DUP3 PUSH0 MSTORE PUSH1 0x3 PUSH1 0x20 MSTORE PUSH1 0x40 PUSH0 KECCAK256 PUSH1 0x1 DUP2 SLOAD ADD SWAP1 SSTORE DUP5 PUSH0 MSTORE PUSH1 0x2 PUSH1 0x20 MSTORE PUSH1 0x40 PUSH0 KECCAK256 DUP4 PUSH12 0xFFFFFFFFFFFFFFFFFFFFFFFF PUSH1 0xA0 SHL DUP3 SLOAD AND OR SWAP1 SSTORE DUP5 DUP4 DUP8 PUSH32 0xDDF252AD1BE2C89B69C2B068FC378DAA952BA7F163C4A11628F55A4DF523B3EF PUSH0 DUP1 LOG4 ISZERO PUSH2 0x2289 JUMPI PUSH1 0x8 SLOAD DUP5 PUSH0 MSTORE PUSH1 0x9 PUSH1 0x20 MSTORE DUP1 PUSH1 0x40 PUSH0 KECCAK256 SSTORE PUSH1 0x1 PUSH1 0x40 SHL DUP2 LT ISZERO PUSH2 0x1AF7 JUMPI DUP5 PUSH2 0x18FC DUP3 PUSH1 0x1 PUSH2 0x2212 SWAP5 ADD PUSH1 0x8 SSTORE PUSH2 0x23C9 JUMP JUMPDEST DUP2 DUP6 SUB PUSH2 0x2249 JUMPI JUMPDEST POP POP PUSH1 0x1 PUSH1 0x1 PUSH1 0xA0 SHL SUB AND DUP1 DUP4 SUB PUSH2 0x2231 JUMPI POP POP POP JUMP JUMPDEST PUSH4 0x64283D7B PUSH1 0xE0 SHL PUSH0 MSTORE PUSH1 0x4 MSTORE PUSH1 0x24 MSTORE PUSH1 0x44 MSTORE PUSH1 0x64 PUSH0 REVERT JUMPDEST PUSH2 0x2252 SWAP1 PUSH2 0x23E1 JUMP JUMPDEST PUSH0 NOT DUP2 ADD SWAP2 SWAP1 DUP3 GT PUSH2 0x10CE JUMPI PUSH0 MSTORE PUSH1 0x6 PUSH1 0x20 MSTORE PUSH1 0x40 PUSH0 KECCAK256 DUP2 PUSH0 MSTORE PUSH1 0x20 MSTORE DUP3 PUSH1 0x40 PUSH0 KECCAK256 SSTORE DUP3 PUSH0 MSTORE PUSH1 0x7 PUSH1 0x20 MSTORE PUSH1 0x40 PUSH0 KECCAK256 SSTORE PUSH0 DUP1 PUSH2 0x221A JUMP JUMPDEST DUP5 DUP3 EQ PUSH2 0x2212 JUMPI PUSH2 0x2299 DUP6 PUSH2 0x23E1 JUMP JUMPDEST DUP5 PUSH0 MSTORE PUSH1 0x7 PUSH1 0x20 MSTORE PUSH1 0x40 PUSH0 KECCAK256 SLOAD SWAP1 DUP7 PUSH0 MSTORE PUSH1 0x6 PUSH1 0x20 MSTORE PUSH1 0x40 PUSH0 KECCAK256 SWAP2 DUP2 DUP2 SUB PUSH2 0x22DB JUMPI JUMPDEST POP DUP6 PUSH0 MSTORE PUSH1 0x7 PUSH1 0x20 MSTORE PUSH0 PUSH1 0x40 DUP2 KECCAK256 SSTORE PUSH0 MSTORE PUSH1 0x20 MSTORE PUSH0 PUSH1 0x40 DUP2 KECCAK256 SSTORE PUSH2 0x2212 JUMP JUMPDEST DUP2 PUSH0 MSTORE DUP3 PUSH1 0x20 MSTORE PUSH1 0x40 PUSH0 KECCAK256 SLOAD DUP2 PUSH0 MSTORE DUP4 PUSH1 0x20 MSTORE DUP1 PUSH1 0x40 PUSH0 KECCAK256 SSTORE PUSH0 MSTORE PUSH1 0x7 PUSH1 0x20 MSTORE PUSH1 0x40 PUSH0 KECCAK256 SSTORE PUSH0 PUSH2 0x22BC JUMP JUMPDEST PUSH0 DUP6 DUP2 MSTORE PUSH1 0x4 PUSH1 0x20 MSTORE PUSH1 0x40 SWAP1 KECCAK256 DUP1 SLOAD PUSH1 0x1 PUSH1 0x1 PUSH1 0xA0 SHL SUB NOT AND SWAP1 SSTORE DUP6 PUSH0 MSTORE PUSH1 0x3 PUSH1 0x20 MSTORE PUSH1 0x40 PUSH0 KECCAK256 PUSH0 NOT DUP2 SLOAD ADD SWAP1 SSTORE PUSH2 0x217F JUMP JUMPDEST DUP1 PUSH2 0x2378 JUMPI JUMPDEST ISZERO PUSH2 0x234A JUMPI PUSH0 PUSH2 0x2175 JUMP JUMPDEST DUP4 DUP6 PUSH2 0x2362 JUMPI PUSH4 0x7E273289 PUSH1 0xE0 SHL PUSH0 MSTORE PUSH1 0x4 MSTORE PUSH1 0x24 PUSH0 REVERT JUMPDEST PUSH4 0x177E802F PUSH1 0xE0 SHL PUSH0 MSTORE CALLER PUSH1 0x4 MSTORE PUSH1 0x24 MSTORE PUSH1 0x44 PUSH0 REVERT JUMPDEST POP CALLER DUP6 EQ DUP1 ISZERO PUSH2 0x23A7 JUMPI JUMPDEST DUP1 PUSH2 0x233F JUMPI POP PUSH0 DUP5 DUP2 MSTORE PUSH1 0x4 PUSH1 0x20 MSTORE PUSH1 0x40 SWAP1 KECCAK256 SLOAD PUSH1 0x1 PUSH1 0x1 PUSH1 0xA0 SHL SUB AND CALLER EQ PUSH2 0x233F JUMP JUMPDEST POP PUSH0 DUP6 DUP2 MSTORE PUSH1 0x5 PUSH1 0x20 SWAP1 DUP2 MSTORE PUSH1 0x40 DUP1 DUP4 KECCAK256 CALLER DUP5 MSTORE SWAP1 SWAP2 MSTORE SWAP1 KECCAK256 SLOAD PUSH1 0xFF AND PUSH2 0x2383 JUMP JUMPDEST PUSH1 0x8 SLOAD DUP2 LT ISZERO PUSH2 0x1062 JUMPI PUSH1 0x8 PUSH0 MSTORE PUSH1 0x20 PUSH0 KECCAK256 ADD SWAP1 PUSH0 SWAP1 JUMP JUMPDEST PUSH1 0x1 PUSH1 0x1 PUSH1 0xA0 SHL SUB AND DUP1 ISZERO PUSH2 0x23FF JUMPI PUSH0 MSTORE PUSH1 0x3 PUSH1 0x20 MSTORE PUSH1 0x40 PUSH0 KECCAK256 SLOAD SWAP1 JUMP JUMPDEST PUSH4 0x22718AD9 PUSH1 0xE2 SHL PUSH0 MSTORE PUSH0 PUSH1 0x4 MSTORE PUSH1 0x24 PUSH0 REVERT JUMPDEST PUSH0 DUP2 DUP2 MSTORE PUSH1 0x2 PUSH1 0x20 MSTORE PUSH1 0x40 SWAP1 KECCAK256 SLOAD PUSH1 0x1 PUSH1 0x1 PUSH1 0xA0 SHL SUB AND SWAP1 DUP2 ISZERO PUSH2 0x2434 JUMPI POP SWAP1 JUMP JUMPDEST PUSH4 0x7E273289 PUSH1 0xE0 SHL PUSH0 MSTORE PUSH1 0x4 MSTORE PUSH1 0x24 PUSH0 REVERT JUMPDEST PUSH1 0xA SLOAD PUSH1 0x1 PUSH1 0x1 PUSH1 0xA0 SHL SUB AND CALLER SUB PUSH2 0x245A JUMPI JUMP JUMPDEST PUSH4 0x118CDAA7 PUSH1 0xE0 SHL PUSH0 MSTORE CALLER PUSH1 0x4 MSTORE PUSH1 0x24 PUSH0 REVERT JUMPDEST DUP3 EXTCODESIZE PUSH2 0x247B JUMPI JUMPDEST POP POP POP POP POP JUMP JUMPDEST PUSH1 0x40 MLOAD PUSH4 0xA85BD01 PUSH1 0xE1 SHL DUP2 MSTORE PUSH1 0x1 PUSH1 0x1 PUSH1 0xA0 SHL SUB SWAP2 DUP3 AND PUSH1 0x4 DUP3 ADD MSTORE SWAP2 DUP2 AND PUSH1 0x24 DUP4 ADD MSTORE PUSH1 0x44 DUP3 ADD SWAP4 SWAP1 SWAP4 MSTORE PUSH1 0x80 PUSH1 0x64 DUP3 ADD MSTORE SWAP2 AND SWAP2 PUSH1 0x20 SWAP1 DUP3 SWAP1 DUP2 SWAP1 PUSH2 0x24C7 SWAP1 PUSH1 0x84 DUP4 ADD SWAP1 PUSH2 0x1F36 JUMP JUMPDEST SUB DUP2 PUSH0 DUP7 GAS CALL PUSH0 SWAP2 DUP2 PUSH2 0x255E JUMPI JUMPDEST POP PUSH2 0x252A JUMPI POP RETURNDATASIZE ISZERO PUSH2 0x2523 JUMPI RETURNDATASIZE PUSH2 0x24EB DUP2 PUSH2 0x1FC4 JUMP JUMPDEST SWAP1 PUSH2 0x24F9 PUSH1 0x40 MLOAD SWAP3 DUP4 PUSH2 0x1FA2 JUMP JUMPDEST DUP2 MSTORE RETURNDATASIZE PUSH0 PUSH1 0x20 DUP4 ADD RETURNDATACOPY JUMPDEST DUP1 MLOAD SWAP1 DUP2 PUSH2 0x251E JUMPI DUP3 PUSH4 0x32505749 PUSH1 0xE1 SHL PUSH0 MSTORE PUSH1 0x4 MSTORE PUSH1 0x24 PUSH0 REVERT JUMPDEST PUSH1 0x20 ADD REVERT JUMPDEST PUSH1 0x60 PUSH2 0x2503 JUMP JUMPDEST PUSH1 0x1 PUSH1 0x1 PUSH1 0xE0 SHL SUB NOT AND PUSH4 0x757A42FF PUSH1 0xE1 SHL ADD PUSH2 0x254C JUMPI POP PUSH0 DUP1 DUP1 DUP1 DUP1 PUSH2 0x2474 JUMP JUMPDEST PUSH4 0x32505749 PUSH1 0xE1 SHL PUSH0 MSTORE PUSH1 0x4 MSTORE PUSH1 0x24 PUSH0 REVERT JUMPDEST SWAP1 SWAP2 POP PUSH1 0x20 DUP2 RETURNDATASIZE PUSH1 0x20 GT PUSH2 0x259B JUMPI JUMPDEST DUP2 PUSH2 0x257A PUSH1 0x20 SWAP4 DUP4 PUSH2 0x1FA2 JUMP JUMPDEST DUP2 ADD SUB SLT PUSH2 0x145 JUMPI MLOAD PUSH1 0x1 PUSH1 0x1 PUSH1 0xE0 SHL SUB NOT DUP2 AND DUP2 SUB PUSH2 0x145 JUMPI SWAP1 PUSH0 PUSH2 0x24D5 JUMP JUMPDEST RETURNDATASIZE SWAP2 POP PUSH2 0x256D JUMP JUMPDEST DUP1 PUSH0 SWAP2 PUSH19 0x184F03E93FF9F4DAA797ED6E38ED64BF6A1F01 PUSH1 0x40 SHL DUP3 LT ISZERO PUSH2 0x26ED JUMPI JUMPDEST DUP1 PUSH14 0x4EE2D6D415B85ACEF8100000000 PUSH1 0xA SWAP3 LT ISZERO PUSH2 0x26D2 JUMPI JUMPDEST PUSH7 0x2386F26FC10000 DUP2 LT ISZERO PUSH2 0x26BE JUMPI JUMPDEST PUSH4 0x5F5E100 DUP2 LT ISZERO PUSH2 0x26AD JUMPI JUMPDEST PUSH2 0x2710 DUP2 LT ISZERO PUSH2 0x269E JUMPI JUMPDEST PUSH1 0x64 DUP2 LT ISZERO PUSH2 0x2690 JUMPI JUMPDEST LT ISZERO PUSH2 0x2685 JUMPI JUMPDEST PUSH1 0xA PUSH1 0x21 PUSH1 0x1 DUP5 ADD SWAP4 PUSH2 0x262A DUP6 PUSH2 0x1FC4 JUMP JUMPDEST SWAP5 PUSH2 0x2638 PUSH1 0x40 MLOAD SWAP7 DUP8 PUSH2 0x1FA2 JUMP JUMPDEST DUP1 DUP7 MSTORE PUSH2 0x2647 PUSH1 0x1F NOT SWAP2 PUSH2 0x1FC4 JUMP JUMPDEST ADD CALLDATASIZE PUSH1 0x20 DUP8 ADD CALLDATACOPY DUP5 ADD ADD JUMPDEST PUSH0 NOT ADD SWAP2 PUSH16 0x181899199A1A9B1B9C1CB0B131B232B3 PUSH1 0x81 SHL DUP3 DUP3 MOD BYTE DUP4 MSTORE8 DIV DUP1 ISZERO PUSH2 0x2680 JUMPI PUSH1 0xA SWAP1 SWAP2 PUSH2 0x2652 JUMP JUMPDEST POP POP SWAP1 JUMP JUMPDEST PUSH1 0x1 SWAP1 SWAP2 ADD SWAP1 PUSH2 0x2618 JUMP JUMPDEST PUSH1 0x64 PUSH1 0x2 SWAP2 DIV SWAP4 ADD SWAP3 PUSH2 0x2611 JUMP JUMPDEST PUSH2 0x2710 PUSH1 0x4 SWAP2 DIV SWAP4 ADD SWAP3 PUSH2 0x2607 JUMP JUMPDEST PUSH4 0x5F5E100 PUSH1 0x8 SWAP2 DIV SWAP4 ADD SWAP3 PUSH2 0x25FC JUMP JUMPDEST PUSH7 0x2386F26FC10000 PUSH1 0x10 SWAP2 DIV SWAP4 ADD SWAP3 PUSH2 0x25EF JUMP JUMPDEST PUSH14 0x4EE2D6D415B85ACEF8100000000 PUSH1 0x20 SWAP2 DIV SWAP4 ADD SWAP3 PUSH2 0x25DF JUMP JUMPDEST POP PUSH1 0x40 SWAP2 POP PUSH19 0x184F03E93FF9F4DAA797ED6E38ED64BF6A1F01 PUSH1 0x40 SHL DUP2 DIV PUSH2 0x25C5 JUMP JUMPDEST SWAP1 PUSH2 0x271A DUP3 PUSH2 0x1FC4 JUMP JUMPDEST PUSH2 0x2727 PUSH1 0x40 MLOAD SWAP2 DUP3 PUSH2 0x1FA2 JUMP JUMPDEST DUP3 DUP2 MSTORE DUP1 SWAP3 PUSH2 0x2738 PUSH1 0x1F NOT SWAP2 PUSH2 0x1FC4 JUMP JUMPDEST ADD SWAP1 PUSH1 0x20 CALLDATASIZE SWAP2 ADD CALLDATACOPY JUMP JUMPDEST SWAP1 DUP2 MLOAD DUP2 LT ISZERO PUSH2 0x1062 JUMPI ADD PUSH1 0x20 ADD SWAP1 JUMP JUMPDEST DUP1 MLOAD ISZERO PUSH2 0x2807 JUMPI DUP1 MLOAD DUP1 PUSH1 0x28 GT PUSH0 EQ PUSH2 0x27FE JUMPI SWAP1 JUMPDEST PUSH2 0x2771 DUP3 PUSH2 0x2710 JUMP JUMPDEST SWAP2 PUSH0 JUMPDEST DUP2 DUP2 LT PUSH2 0x27D3 JUMPI POP PUSH1 0x28 EQ SWAP1 DUP2 PUSH2 0x27C7 JUMPI JUMPDEST POP PUSH2 0x278E JUMPI SWAP1 JUMP JUMPDEST PUSH2 0x27C4 PUSH1 0x3 PUSH1 0x20 DUP1 SWAP4 PUSH1 0x40 MLOAD SWAP5 DUP2 DUP7 SWAP3 MLOAD SWAP2 DUP3 SWAP2 ADD DUP5 DUP5 ADD MCOPY DUP2 ADD PUSH3 0x171717 PUSH1 0xE9 SHL DUP4 DUP3 ADD MSTORE SUB ADD PUSH1 0x1C NOT DUP2 ADD DUP5 MSTORE ADD DUP3 PUSH2 0x1FA2 JUMP JUMPDEST SWAP1 JUMP JUMPDEST SWAP1 POP MLOAD PUSH1 0x28 LT PUSH0 PUSH2 0x2786 JUMP JUMPDEST PUSH1 0x1 SWAP1 PUSH1 0x1 PUSH1 0x1 PUSH1 0xF8 SHL SUB NOT PUSH2 0x27E9 DUP3 DUP7 PUSH2 0x2742 JUMP JUMPDEST MLOAD AND PUSH0 BYTE PUSH2 0x27F7 DUP3 DUP8 PUSH2 0x2742 JUMP JUMPDEST MSTORE8 ADD PUSH2 0x2774 JUMP JUMPDEST POP PUSH1 0x28 SWAP1 PUSH2 0x2768 JUMP JUMPDEST POP PUSH1 0x40 MLOAD PUSH2 0x2816 PUSH1 0x20 DUP3 PUSH2 0x1FA2 JUMP JUMPDEST PUSH0 DUP2 MSTORE SWAP1 JUMP JUMPDEST DUP1 MLOAD PUSH1 0x28 LT ISZERO PUSH2 0x2807 JUMPI DUP1 MLOAD DUP1 PUSH1 0x50 GT PUSH0 EQ PUSH2 0x28AA JUMPI SWAP1 JUMPDEST PUSH1 0x27 NOT DUP3 ADD DUP3 DUP2 GT PUSH2 0x10CE JUMPI PUSH2 0x2849 SWAP1 PUSH2 0x2710 JUMP JUMPDEST SWAP2 PUSH1 0x28 JUMPDEST DUP2 DUP2 LT PUSH2 0x2872 JUMPI POP PUSH1 0x50 EQ SWAP1 DUP2 PUSH2 0x2866 JUMPI POP PUSH2 0x278E JUMPI SWAP1 JUMP JUMPDEST SWAP1 POP MLOAD PUSH1 0x50 LT PUSH0 PUSH2 0x2786 JUMP JUMPDEST PUSH1 0x1 PUSH1 0x1 PUSH1 0xF8 SHL SUB NOT PUSH2 0x2885 DUP3 DUP6 PUSH2 0x2742 JUMP JUMPDEST MLOAD AND SWAP1 PUSH1 0x27 NOT DUP2 ADD DUP2 DUP2 GT PUSH2 0x10CE JUMPI PUSH2 0x28A3 PUSH1 0x1 SWAP4 PUSH0 BYTE SWAP2 DUP8 PUSH2 0x2742 JUMP JUMPDEST MSTORE8 ADD PUSH2 0x284D JUMP JUMPDEST POP PUSH1 0x50 SWAP1 PUSH2 0x2834 JUMP JUMPDEST SWAP1 DUP2 MLOAD ISZERO PUSH2 0x29D2 JUMPI DUP2 MLOAD PUSH1 0x2 DUP2 ADD DUP1 SWAP2 GT PUSH2 0x10CE JUMPI PUSH1 0x3 SWAP1 DIV PUSH1 0x2 DUP2 SWAP1 SHL SWAP2 SWAP1 PUSH1 0x1 PUSH1 0x1 PUSH1 0xFE SHL SUB DUP2 AND SUB PUSH2 0x10CE JUMPI PUSH1 0x40 MLOAD SWAP2 PUSH32 0x4142434445464748494A4B4C4D4E4F505152535455565758595A616263646566 PUSH1 0x1F MSTORE PUSH32 0x6768696A6B6C6D6E6F707172737475767778797A303132333435363738392B2F PUSH1 0x3F MSTORE PUSH1 0x20 DUP4 ADD DUP5 DUP1 MLOAD DUP2 ADD PUSH1 0x20 DUP2 ADD DUP1 MLOAD SWAP2 PUSH0 DUP3 MSTORE JUMPDEST DUP1 DUP10 LT PUSH2 0x2996 JUMPI POP PUSH1 0x20 SWAP6 SWAP7 SWAP8 POP SWAP1 PUSH1 0x3 SWAP3 SWAP2 MSTORE MLOAD MOD DUP1 PUSH1 0x1 EQ PUSH2 0x2981 JUMPI PUSH1 0x2 EQ PUSH2 0x2974 JUMPI JUMPDEST POP DUP1 DUP5 MSTORE DUP4 ADD ADD PUSH1 0x40 MSTORE JUMP JUMPDEST PUSH1 0x3D SWAP1 PUSH0 NOT ADD MSTORE8 PUSH0 PUSH2 0x2968 JUMP JUMPDEST POP PUSH1 0x3D SWAP1 DUP2 PUSH0 NOT DUP3 ADD MSTORE8 PUSH1 0x1 NOT ADD MSTORE8 PUSH0 PUSH2 0x2968 JUMP JUMPDEST SWAP4 SWAP8 PUSH1 0x3 PUSH1 0x4 SWAP2 ADD SWAP9 PUSH1 0x3F DUP11 MLOAD DUP2 DUP2 PUSH1 0x12 SHR AND MLOAD DUP4 MSTORE8 DUP2 DUP2 PUSH1 0xC SHR AND MLOAD PUSH1 0x1 DUP5 ADD MSTORE8 DUP2 DUP2 PUSH1 0x6 SHR AND MLOAD PUSH1 0x2 DUP5 ADD MSTORE8 AND MLOAD PUSH1 0x3 DUP3 ADD MSTORE8 ADD SWAP4 PUSH2 0x2942 JUMP JUMPDEST SWAP1 POP PUSH1 0x40 MLOAD PUSH2 0x2816 PUSH1 0x20 DUP3 PUSH2 0x1FA2 JUMP INVALID LOG2 PUSH5 0x6970667358 0x22 SLT KECCAK256 0xB8 PUSH31 0x395033B9504DEF4B56ACE012A5E02D7D769FD59C36FD306ABB85B4B4144064 PUSH20 0x6F6C634300081E00330000000000000000000000 "},"methodIdentifiers":{"approve(address,uint256)":"095ea7b3","balanceOf(address)":"70a08231","fortunes(uint256)":"8c8005a3","getApproved(uint256)":"081812fc","isApprovedForAll(address,address)":"e985e9c5","mintFortune(string,uint256,uint256)":"0a1d0095","mintPrice()":"6817c76c","name()":"06fdde03","owner()":"8da5cb5b","ownerOf(uint256)":"6352211e","renounceOwnership()":"715018a6","safeTransferFrom(address,address,uint256)":"42842e0e","safeTransferFrom(address,address,uint256,bytes)":"b88d4fde","setApprovalForAll(address,bool)":"a22cb465","setMintPrice(uint256)":"f4a0a528","supportsInterface(bytes4)":"01ffc9a7","symbol()":"95d89b41","tokenByIndex(uint256)":"4f6ccce7","tokenOfOwnerByIndex(address,uint256)":"2f745c59","tokenURI(uint256)":"c87b56dd","totalSupply()":"18160ddd","transferFrom(address,address,uint256)":"23b872dd","transferOwnership(address)":"f2fde38b","withdraw()":"3ccfd60b"}}}}}