{
  "_format": "hh-sol-artifact-1",
  "contractName": "FortuneReactiveHandler",
  "sourceName": "contracts/FortuneReactiveHandler.sol",
  "abi": [
    {
      "inputs": [
        {
          "internalType": "address",
          "name": "_fortuneContract",
          "type": "address"
        }
      ],
      "stateMutability": "nonpayable",
      "type": "constructor"
    },
    {
      "inputs": [],
      "name": "OnlyReactivityPrecompile",
      "type": "error"
    },
    {
      "anonymous": false,
      "inputs": [
        {
          "indexed": true,
          "internalType": "address",
          "name": "wallet",
          "type": "address"
        },
        {
          "indexed": false,
          "internalType": "uint256",
          "name": "tokenId",
          "type": "uint256"
        },
        {
          "indexed": false,
          "internalType": "string",
          "name": "rarity",
          "type": "string"
        },
        {
          "indexed": false,
          "internalType": "uint256",
          "name": "timestamp",
          "type": "uint256"
        }
      ],
      "name": "FortuneReaction",
      "type": "event"
    },
    {
      "anonymous": false,
      "inputs": [
        {
          "indexed": false,
          "internalType": "uint256",
          "name": "reactionCount",
          "type": "uint256"
        },
        {
          "indexed": false,
          "internalType": "address",
          "name": "latestWallet",
          "type": "address"
        }
      ],
      "name": "LiveFeedUpdate",
      "type": "event"
    },
    {
      "inputs": [],
      "name": "fortuneContract",
      "outputs": [
        {
          "internalType": "address",
          "name": "",
          "type": "address"
        }
      ],
      "stateMutability": "view",
      "type": "function"
    },
    {
      "inputs": [
        {
          "internalType": "address",
          "name": "wallet",
          "type": "address"
        }
      ],
      "name": "getReactionStats",
      "outputs": [
        {
          "internalType": "uint256",
          "name": "",
          "type": "uint256"
        },
        {
          "internalType": "uint256",
          "name": "",
          "type": "uint256"
        }
      ],
      "stateMutability": "view",
      "type": "function"
    },
    {
      "inputs": [
        {
          "internalType": "address",
          "name": "emitter",
          "type": "address"
        },
        {
          "internalType": "bytes32[]",
          "name": "eventTopics",
          "type": "bytes32[]"
        },
        {
          "internalType": "bytes",
          "name": "data",
          "type": "bytes"
        }
      ],
      "name": "onEvent",
      "outputs": [],
      "stateMutability": "nonpayable",
      "type": "function"
    },
    {
      "inputs": [],
      "name": "reactionCount",
      "outputs": [
        {
          "internalType": "uint256",
          "name": "",
          "type": "uint256"
        }
      ],
      "stateMutability": "view",
      "type": "function"
    },
    {
      "inputs": [
        {
          "internalType": "bytes4",
          "name": "interfaceId",
          "type": "bytes4"
        }
      ],
      "name": "supportsInterface",
      "outputs": [
        {
          "internalType": "bool",
          "name": "",
          "type": "bool"
        }
      ],
      "stateMutability": "pure",
      "type": "function"
    },
    {
      "inputs": [
        {
          "internalType": "address",
          "name": "",
          "type": "address"
        }
      ],
      "name": "walletReactions",
      "outputs": [
        {
          "internalType": "uint256",
          "name": "",
          "type": "uint256"
        }
      ],
      "stateMutability": "view",
      "type": "function"
    }
  ],
  "bytecode": "0x608034606f57601f61056838819003918201601f19168301916001600160401b03831184841017607357808492602094604052833981010312606f57516001600160a01b03811690819003606f575f80546001600160a01b0319169190911790556040516104e090816100888239f35b5f80fd5b634e487b7160e01b5f52604160045260245ffdfe6080806040526004361015610012575f80fd5b5f3560e01c90816301ffc9a71461041b5750806353edf33d1461011c5780636f37b17f146100f557806370cb9963146100b7578063a27dfbde1461009a5763f1a0bbbf1461005e575f80fd5b34610096576020366003190112610096576001600160a01b0361007f61046e565b165f526002602052602060405f2054604051908152f35b5f80fd5b34610096575f366003190112610096576020600154604051908152f35b34610096576020366003190112610096576001600160a01b036100d861046e565b165f5260026020526040805f205460015482519182526020820152f35b34610096575f366003190112610096575f546040516001600160a01b039091168152602090f35b346100965760603660031901126100965761013561046e565b60243567ffffffffffffffff811161009657366023820112156100965780600401359067ffffffffffffffff821161009657602490369260051b010111610096576044359067ffffffffffffffff8211610096573660238301121561009657816004013567ffffffffffffffff8111610096578201602481019136831161009657610100330361040c575f546001600160a01b039081169116036103d05760a090839003126100965760448201356001600160a01b038116919082900361009657606483013567ffffffffffffffff81116100965783018160438201121561009657602481013567ffffffffffffffff81116103bc5761023e601f8201601f1916602001610484565b8181529260448383010111610096575f928160446020940184830137010152608482013560ff8116809103610096578061036e575061027d6040610484565b600681526521a7a6a6a7a760d11b6020820152905b6001546001810180911161035a57600155805f52600260205260405f209182546001810180911161035a577f68b1ee96a877c12679b5a6a14cf304c7c87012c5498fc7cc1ba07d8069a705cd94608084937fa7da9594ece7b520ffe750b91cfbe56a72a92ca655b1f6c5230fec10ce2fd1a29360409755602060a48851948593602482013585526060848601528051938491826060880152018686015e5f848401860152013588830152601f01601f19168101030190a26001549082519182526020820152a1005b634e487b7160e01b5f52601160045260245ffd5b6001036103965761037f6040610484565b60048152635241524560e01b602082015290610292565b6103a06040610484565b60098152684c4547454e4441525960b81b602082015290610292565b634e487b7160e01b5f52604160045260245ffd5b60405162461bcd60e51b81526020600482015260146024820152732ab730baba3437b934bd32b21032b6b4ba3a32b960611b6044820152606490fd5b63191fbb7560e01b5f5260045ffd5b34610096576020366003190112610096576004359063ffffffff60e01b8216809203610096576020916301ffc9a760e01b811490811561045d575b5015158152f35b6353edf33d60e01b14905083610456565b600435906001600160a01b038216820361009657565b6040519190601f01601f1916820167ffffffffffffffff8111838210176103bc5760405256fea26469706673582212207289ebca297124308a7de7f2883095ab4df37d1e49907d2244fce044446ca7bd64736f6c634300081e0033",
  "linkReferences": {},
  "deployedLinkReferences": {}
}